:020000040800F2
:10000000F04C012031020008390200083B020008D0
:100010003D0200083F020008410200080000000005
:10002000000000000000000000000000990100082E
:100030004502000800000000DD010008B993000837
:100040004B0200084B0200084B0200084B0200085C
:100050004B0200084B0200084B0200084B0200084C
:100060004B0200084B0200084B0200084B0200083C
:100070004B0200084B0200084B0200084B0200082C
:100080004B0200084B0200084B0200084B0200081C
:100090004B0200084B0200084B0200084B0200080C
:1000A0004B0200084B0200084B0200084B020008FC
:1000B000399600084B0200084B0200084B0200086A
:1000C0004B0200084B0200084B0200084B020008DC
:1000D0004B0200084B0200084B0200084B020008CC
:1000E0004B0200084B0200084B0200084B020008BC
:1000F0004B0200084B0200084B0200084B020008AC
:100100004B0200084B0200084B0200084B0200089B
:10011000599700084B0200084B0200084B020008E8
:100120004B0200084B0200084B0200084B0200087B
:100130004B0200084B0200084B0200084B0200086B
:100140004B0200084B0200084B02000841830008E4
:100150004B0200084B0200084B0200084B0200084B
:100160004B0200084B0200084B0200084B0200083B
:100170004B0200084B0200084B0200084B0200082B
:100180004B020008DFF80CD000F042FB00480047AB
:1001900079730108F04C0120224B19680868B0E817
:1001A000F00F80F30988BFF36F8F4FF0000080F3EA
:1001B00011884EF00D0E70470000000006480068E0
:1001C000006880F3088862B661B6BFF34F8FBFF353
:1001D0006F8F00DF00BF00BF08ED00E0EFF3098084
:1001E000BFF36F8F0F4B1A6820E9F00F106008B54E
:1001F0004FF0500080F31188BFF34F8FBFF36F8F24
:1002000018F0BAFE4FF0000080F31188BDE80840F6
:1002100019680868B0E8F00F80F30988BFF36F8FA2
:10022000704700BF58000020EFF3058070470000C2
:100230000648804706480047FEE7FEE7FEE7FEE780
:10024000FEE7FEE7FEE7FEE7FEE7FEE7ED930008C8
:100250008501000810B5431A934209D28318881803
:1002600003E010F8011D03F8011D521EF9D210BD64
:1002700040EA01039B0703D009E008C9121F08C028
:10028000042AFAD203E011F8013B00F8013B521EA8
:10029000F9D210BDD2B201E000F8012B491EFBD209
:1002A00070470022F6E710B513460A460446194681
:1002B000FFF7F0FF204610BD421C10F8011B00297B
:1002C000FBD1801A7047034611F8012B00F8012B6F
:1002D000002AF9D1184670472DE9FE4F81EA030440
:1002E00004F0004421F0004100944FF0000B23F093
:1002F000004350EA01045ED052EA03045BD0C3F32A
:100300000A54C1F30A552C44A4F2F3340194A0FB1F
:100310000254C1F3130141F48011C3F3130343F4F6
:10032000801301FB024400FB034E840A970A44EA4F
:10033000815447EA8357A4FB076802958D0A05FBA1
:1003400007854FEA932C04FB0C542705029D4FEAC6
:10035000065847EA1637B5EB08056EEB070C870E13
:10036000920E47EA811742EA8312A7FB0201B6EB1D
:100370000B0164EB00042B0D43EA0C335E1844EBD5
:100380001C50DA465146E7FB0201C5F313044FEA5D
:100390000B3343EA14534FEA0432019C43EA060349
:1003A000A4F10C040294009CCDE900B400F00BF918
:1003B00003B0BDE8F08F00200146F9E72DE9F04DCC
:1003C00081EA030404F0004B21F0004514464FF08D
:1003D000000A23F0004150EA050220D054EA01024D
:1003E0001DD0C5F30A570246C5F31303C1F313002A
:1003F000C1F30A5640F4801543F48013A7EB0608B6
:10040000101BD64608F2FD3873EB050002D308F145
:10041000010801E092185B41B8F1000F03DA0020F7
:100420000146BDE8F08D00204FF480110646844659
:100430000EE0171B73EB050705D3121B63EB0503D7
:1004400006434CEA010C49084FEA300092185B4120
:1004500050EA0107EDD152EA030012D082EA04000B
:1004600083EA0501084305D0101BAB4106D20122E7
:10047000002306E000224FF0004302E06FF001028B
:1004800053101AEB06004CEB085110EB0A0041EB3D
:100490000B01BDE8F04D00F087B80EB5C10F80EA42
:1004A000E0700844CA07002140F233438DE80E0093
:1004B0000A460B4600F087F803B000BD70B5C1F3E3
:1004C0000A5201F000450024C1F3130140F2FF334A
:1004D00041F480119A4201DA002070BD40F23343AA
:1004E0009A42A2F2334203DC524200F04DF800E09F
:1004F00090402C43F1D0404270BD30B50B460146D0
:1005000000202022012409E021FA02F59D4205D3B2
:1005100003FA02F5491B04FA02F52844151EA2F15C
:100520000102F1DC30BD2DE9F05F05460020924666
:100530009B4688460646814640241BE028464146A5
:100540004746224600F020F853465A46C01A9141C9
:1005500010D311461846224600F06CF92D1A67EBAD
:1005600001084F4622460120002100F063F917EBF5
:1005700000094E41201EA4F10104DFDC484631464B
:100580002A464346BDE8F09F202A04DB203A21FAA0
:1005900002F00021704721FA02F3D040C2F120029C
:1005A000914008431946704710B5141E73F10004BA
:1005B00008DA401C41F1000192185B411A4301D155
:1005C00020F0010010BD2DE9F04D92469B4611B17F
:1005D000B1FA81F202E0B0FA80F22032904600F0E7
:1005E00029F904460F4640EA0A0041EA0B01534646
:1005F0005A46084313D0114653EA010019D0C8F1F6
:1006000040025046FFF7C0FF05460E465046594689
:10061000424600F00FF9084305D0012004E02046CF
:100620003946BDE8F08D0020054346EAE0762C43CC
:1006300037430A986305E40AA0EB08000022FD0A8C
:1006400044EA47540A3002D500200146E9E7010593
:1006500010196941DDE9084500196941BDE8F04D0F
:10066000A2E72DE9FE4F804681EA0300C00F0C4649
:10067000009021F0004123F00045B8EB0200A941B1
:1006800005D24046214690461C460B46024623F0C2
:100690000040104347D0270DC7F30A00C3F30A51A7
:1006A0000290401A019040286BDAC3F3130040F423
:1006B000801B0098924620B10023D2EB030A63EB23
:1006C0000B0B01985946C0F14002504600F0B2F8B9
:1006D00006460D4650465946019A00F0BAF810EB0E
:1006E00008006141002487EA115284EAE7731A4343
:1006F00040D0009A62B3019A012A4FEA075215DCF2
:10070000001B61EB02014FF0004202EA0752CDE903
:100710000042001C41F5801132462B46FFF753FF83
:1007200003B0BDE8F08F40462146F9E7001B61EBBE
:100730000201001C41F5801300185B412018A2F54E
:10074000001747EB030140EAD570B6196D4111E07F
:100750006D084FEA360645EAC0754FEA0752001B9E
:1007600061EB0201001C41F5801149084FEA30009D
:100770000019514132462B4603B0BDE8F04FFFF758
:1007800013BF0098012240000023D0EB020263EB6C
:10079000E073009821464FEAE074B8EB000061EB8B
:1007A0000401E9E783F000435BE781F0004158E78B
:1007B000C1F30A52C1F3130140F2FF3341F4801137
:1007C0009A4202DA00200146704740F233439A42CF
:1007D000A2F2334202DC5242FFF7D6BE00F02AB842
:1007E00030B5041E71F1000404DB4FF000444042B8
:1007F00064EB0101141E73F1000405DB1C464FF08D
:100800000043524263EB0403994208BF904230BD5B
:10081000064C074D06E0E06840F0010394E807004D
:1008200098471034AC42F6D3FFF7B0FC68C2040816
:1008300088C20408202A04DB203A00FA02F10020D2
:1008400070479140C2F1200320FA03F3194390400E
:100850007047202A06DBCB17203A41FA02F043EA20
:10086000E07306E041FA02F3D040C2F12002914069
:1008700008431946704770B58C1810F8015B15F0E5
:10088000070301D110F8013B2A1106D110F8012B02
:1008900003E010F8016B01F8016B5B1EF9D12B0727
:1008A00005D40023521E0DD401F8013BFAE710F8DD
:1008B000013BCB1A921C03E013F8015B01F8015BCA
:1008C000521EF9D5A142D8D3002070BD10B5044600
:1008D00004F003040421094801F05EFB204600F007
:1008E0004DF80421054801F059FB642000F00AF896
:1008F0000348007800F082F810BD000000000240BC
:10090000B400002000BF0100A0F1010290B2FAD1B2
:10091000704700001CB50121084607F079FF0C2044
:10092000009002208DF8050001208DF80400694632
:10093000114801F0BDFA1020009002208DF805004A
:1009400000208DF8040001208DF8070069460A4850
:1009500001F0AEFA0821084801F01EFB42F21070C7
:10096000FFF7D0FF0821044801F018FB42F2107095
:10097000FFF7C8FF1CBD00000000024010B5044690
:1009800000222146014817F083FB10BD00300140D2
:1009900010B504210D4801F0FFFAFF20FFF7EEFF2C
:1009A000FF20FFF7EBFFFF20FFF7E8FFFF20FFF737
:1009B000E5FFFF20FFF7E2FF0421044801F0EEFA13
:1009C0004FF4FA70FFF79EFF10BD000000000240D8
:1009D00010B504460421084801F0DEFA2020FFF794
:1009E000CDFF2046FFF7CAFF0421034801F0D6FAE5
:1009F0006420FFF787FF10BD0000024010B50446D9
:100A00000421084801F0C8FA1020FFF7B7FF20467C
:100A1000FFF7B4FF0421034801F0C0FA6420FFF798
:100A200071FF10BD0000024070B505460C46084835
:100A30000560204600F00EF800BF05480068002859
:100A4000FBD100214FF0804008F020FE70BD000077
:100A5000B00000203EB5044600214FF0804008F071
:100A600015FE00220121880708F02CFE022C02D17D
:100A70000B20019004E0012C02D142F6DF600190CE
:100A80000520ADF800000020ADF80800ADF8020028
:100A900069464FF0804008F01FFE0121880708F0EA
:100AA000F2FD0121880708F0E3FD012211469007BD
:100AB00008F008FE0121880708F0E8FD3EBD0000AF
:100AC00038B545680446014628460AF0F5FF002877
:100AD0002BD02068304A11280DD006DC0B2825D0F9
:100AE0000E2833D00F2852D112E0282849D0B0F573
:100AF000107F4CD108E09268002A16D02146284683
:100B000001B0BDE830401047214628465268F7E75B
:100B1000284601F0A5FE0090406E0468684601F08A
:100B2000FBFE002C01D02846A04738BD284601F026
:100B300097FE0090683001F0E9FD009803216C30C9
:100B400001F0F2FD684601F0E7FE20E0E168486848
:100B500009680D2902D0202913D105E0002810DDF5
:100B6000284611F097FF06E0002804DD2846BDE87E
:100B7000384011F08FBF2846BDE83840022111F0FF
:100B80009FBFE06818B90021284600F097F9204679
:100B9000BDE838400BF054BA5C010020F0B50446C3
:100BA00085B08069B4F90850668A0027CDE90265EE
:100BB000CDE900170490B4F90C00B4F91060C11825
:100BC000B4F90A00B4F90E50104433462A4600F036
:100BD00007F80546616800F07AF905B02846F0BDCF
:100BE0002DE9F04F85B01F46DDE911B4DDE90E5661
:100BF00090468946824602F093FF16484C34CDE970
:100C00000204CDE900563B464246494650460BF0A9
:100C10005FF9040018D001F023FE10225946049019
:100C20000BF080F8049830220B493430FFF712FBA8
:100C3000094D04990C3D2868486604A801F06CFE33
:100C4000286841682046884704F02AF905B0204604
:100C5000BDE8F08FC10A000868010020F0B5044625
:100C600080688B4989B051F82050606800287DD099
:100C7000052804D006287AD0122879D1AEE0E86998
:100C800000284FD095E80E008DE80F0004F1100108
:100C90000FC904F0AFFE002655F8260003F0CDFD85
:100CA000A169E8690A1A216901446069304402F0C7
:100CB00053FCA169E8690A1A21690144E069801BB3
:100CC00002F04AFCE169E8690A1A61690144206995
:100CD000304402F0D3FCE169E8690A1A6169014411
:100CE000A069801B02F0CAFC761C022ED4DBA86827
:100CF00003F0A3FDE069E9696669431A20694218B7
:100D00003144801C521E02F053FDE169E869A2697A
:100D10000B1A61690144101A401C921E02F048FD32
:100D2000EE6913E05FF0000655F8260003F085FD3C
:100D3000E069831BA069821B6069811920693044C6
:100D400002F05CFC761C022EEEDB0226D5E90301E4
:100D5000CDE900016169E06908444310A069891C7C
:100D6000821B2069304402F0BBFB02E089E012E004
:100D70008AE0D5E90501CDE90001E3696069012157
:100D8000184401EB6001A0699B1E821B206930445E
:100D900002F0A6FB78E0206801F062FD0490206874
:100DA0000CF018FD40B1A06808B1002008E00498DC
:100DB000006F28B1012003E00498406F00B10220C9
:100DC000049901EB8000C56E04A801F0A5FD002385
:100DD0001A462846216802F065F955E0206801F0BE
:100DE0003FFD0490866EEEB3B0F95C70A168D1B39C
:100DF000032942D05FF0000100EB8101406D0C6CD3
:100E000003F044FD204603F018FD05A802F092FD12
:100E1000BDF81410A88B0144ADF81410BDF81810DB
:100E2000081AADF81800BDF81600801CADF81600C1
:100E3000BDF81A00801EADF81A000498B0F96020C1
:100E4000B0F95E1005A803F048FB04A801F064FDAA
:100E5000022003F0A5FD304601F002FD3A4605A947
:100E6000079001E00BE006E002F018FA0DF11C001B
:100E700001F052FD08E00121BEE70221BCE704A811
:100E8000F6E720680CF026F909B00020F0BD00005C
:100E90007CB8040838B50D4604000ED002F040FEC0
:100EA000204601F0DDFC00904565684601F034FD08
:100EB00020460BF029FE03F0F3FF38BD4FF480729B
:100EC0000029114601D00AF08BBE0AF0D5BD2DE9EC
:100ED000FF410E4605004FF0010421D002F020FE34
:100EE000284601F0BDFC0190876E01A8009701F033
:100EF00013FD3146684605F083F878B10098002468
:100F0000B84208D0284601F0ABFC019000998166F8
:100F100001A801F001FD28460BF0F6FD03F0C0FF2B
:100F200004B02046BDE8F081F8B515460C46060031
:100F300012D002F0F5FD304601F092FC0090032C37
:100F400002D200EB84000564684601F0E5FC3046FF
:100F50000BF0DAFD03F0A4FFF8BD2DE9F0470446DD
:100F600040688EB00027804601F07AFC0090B0F80F
:100F70007CA0D0F86890D0F88060D0F88850C06D20
:100F800000B10768684601F0C7FC05E069682046C3
:100F90008847002843D12D68002DF7D120681728F5
:100FA00053D00CDC0F283DD004DC0B2877D00D2863
:100FB00025D18BE0112810D0142820D13BE0262821
:100FC00046D004DC1E2851D0202818D18AE02A28D7
:100FD00016D0B0F5107F12D128E04046E56801F048
:100FE0003FFC0290697A39B9297A012904D130F895
:100FF0007C1F41F48071018002A801F08DFC75E036
:10100000404601F02DFC0090E16811B1C0F8841059
:1010100002E0D0F88400E060684601F07DFC0EB08C
:10102000BDE8F087D7B34046B8475FE02146404669
:1010300012F0C8F8F3E705A9404600F0CCFBE068E1
:101040000699016007994160E9E7C4F80C90E6E76A
:10105000E0680228E3D1CDF83080E0680D902720C9
:101060000A900AA9A0680CF0AFFDD8E7E068012853
:1010700004D00021404600F0BCFAD0E730460BF027
:10108000ACFD68B130460BF09FFF30460BF068FCBA
:1010900098B1012130460AF0A3FD0EE026E02FE0D2
:1010A00048460BF0E5FF0646404601F0D9FB0090AC
:1010B000C0F88060684601F02FFC0121404600F036
:1010C00098FA002EABD10020E060A8E75FEA0A7032
:1010D0000CD4E068C06848B1007A38B140460BF0E3
:1010E00073FF03E02146404611F007FD21464046CC
:1010F0000AF0E2FC002892D020460AF0A1FF8EE719
:10110000404601F0ADFB0090703001F0FFFA6846F8
:1011100073E7F0B587B0B0F908400DF10C0C0C9EE8
:10112000876945688CE8F000448A0025CDE9001500
:101130000294B0F90C10B0F91050B0F90E40B0F9AB
:101140000A00194410442B46224600F003F807B069
:10115000F0BD00002DE9F04F8BB09846DDE9155643
:1011600091468A468346149F1A9C02F0D9FC334864
:10117000603445F48055CDE90204CDE9007543465D
:101180004A46514658460AF0A3FE04004FD001F0EB
:1011900067FB3022049017990AF0C4FD04982822B6
:1011A00027493430FFF756F804981999244F4166BF
:1011B000A0F87C600026C0F88060C666083FC0F8D2
:1011C00088607968C16504A801F0A6FB05A92046DE
:1011D00000F001FB1B4841F2827103960094CDE9B7
:1011E0000110BDF91E00BDF91A10BDF91C20431AEB
:1011F000BDF918005B1C121A521C0AF069FE064663
:101200007868416820468847204601F029FB049011
:10121000866604A801F080FB42F20400054202D178
:1012200020460AF0BDFF2046189900F03EFA03F070
:1012300037FE0BB02046BDE8F08F00005B0F0008C2
:10124000A0010020DD1A00082DE9F041044694B009
:10125000006800F0B7F908B1D94D01E0D84D2C3540
:10126000606815281ED00CDC0B281FD004DC002879
:101270007ED005287DD12FE10E287BD01228F9D110
:1012800041E1162806D0172808D0182808D01C28B5
:10129000F0D109E0E86914B0BDE8F081286AFAE706
:1012A000686AF8E7A86AF6E76869F4E720680B90CF
:1012B0001C200C90206801F0D3FA0390016D0BA85C
:1012C0008847064603A801F027FB022E0FDB95E8AE
:1012D00007008DE80700D4E904023346A16904F051
:1012E0004FFB20698719A069A0EB06082CE028684D
:1012F00003F0A3FA2169E8690A18521E606902F036
:101300002BF9A269E869111A491C606902F024F9F5
:10131000D4E904077F1C394602F04AF93946A0692E
:1013200002F046F9686803F088FA20693946401CE3
:1013300002F03EF9A0693946401E02F039F9A06971
:101340002769A0F10208BF1C286803F076FA42461C
:101350003946606902F000F9686803F06EFA606966
:1013600042463946401C02F0F7F8686A022802E05B
:1013700015E1B0E000E10BDDA86803F05EFA6169F9
:101380006A6A881C8B180146424638465B1E27E075
:10139000296AB14226DD6069022E074600F1020883
:1013A00001DB374401E007F10207206901DB30442B
:1013B00001E000F1020022693B460A444146A2F1E5
:1013C000010202F0F5F9022E02DBA069821B01E0A6
:1013D000A269921EA069E9693B46401A4146401C39
:1013E00002F0E6F9022E02DB6069064401E066695C
:1013F000B61CE76928687F1E03F01FFA3A4631469B
:10140000206902F03BF93A463146A06902F036F90C
:10141000E7696868BF1E03F010FA20693A46314652
:10142000401C02F02BF9A0693A463146401E02F0FA
:1014300025F9E869022802DC286A022823DDA86A67
:10144000022802DDE1690F1A01E0E769BF1EA86802
:1014500003F0F3F9E969022909DD20693B464218E6
:1014600000F1020C31466046521E02F0A1F9286AD2
:10147000022808DDA269E8693B46101A3146401C83
:10148000921E02F095F9286803F0D7F9D4E90620F6
:10149000216902F061F8686803F0CFF9D4E9062009
:1014A0002169401E491C521E02F056F8A86A022803
:1014B00011DDA1692669E469A1F10208271AA41EB9
:1014C000B61C7F1CA86803F0B8F92346424639468B
:1014D000304602F06DF971E0208A00B2ADF81400D8
:1014E000A18A09B2ADF81610228B12B2ADF81820FD
:1014F000A38B1BB2ADF81A302C69ED68CDE900540E
:1015000001F0EEFF5AE0208A298B0844ADF8140060
:10151000A08AADF81600208B298B401AADF8180070
:10152000A08BADF81A00206801F09AF90390006FC3
:10153000F0B1022003F034FA039890F87C10C1F364
:10154000C00100EB8100006C03F077F90398406B59
:1015500003F09CF90398006F01F082F90399099058
:10156000B1F95A2005A901F099FE09A801F0D4F9B2
:1015700003A801F0D1F921E0208AADF81400A08A77
:10158000ADF81600208BADF81800A08BADF81A004E
:10159000A86803F052F905A802F036F90EE02068B9
:1015A00001F05EF9039030F85A1F41F00C01018000
:1015B00003A801F0B1F920680BF08CFD00206AE669
:1015C0001404002038B505004FF000040FD002F0DD
:1015D000A7FA284601F044F9009090F87C00000733
:1015E00000D50124684601F097F903F059FC204624
:1015F00038BD70B50D46040009D002F091FA2946B5
:10160000204612F065FDBDE8704003F049BC70BD96
:1016100038B50C46050011D002F082FA284601F0D8
:101620001FF90090816CA14203D08464806E0BF09E
:101630006BFA684601F070F903F032FC38BD2DE911
:10164000FC410D46804602F06BFAB8F1000028D04C
:1016500001F006F90190C16D8C6800F023F907468E
:101660000198456301A801F057F92268012140461D
:101670009047064622680321404690470546226867
:101680000021404690470446404600F0F0F92B46C2
:10169000324639464046009400F079F940460BF056
:1016A00033FA03F0FDFBBDE8FC817CB50D46040078
:1016B0001DD002F035FA204601F0D2F80090006FFC
:1016C0000190684601F028F9294601A804F098FC29
:1016D00058B1204601F0C4F80090019901676846AE
:1016E00001F01AF920460BF00FFA03F0D9FB7CBD8C
:1016F00038B50C46050013D002F012FA284601F066
:10170000AFF80090B0F95A10A14204D0A0F85A40A6
:1017100028460BF0F9F9684601F0FEF803F0C0FB2B
:1017200038BD000038B50C46050015D002F0F8F9B8
:10173000284601F095F80022CDF8000000EB820168
:10174000521C0C64022AF9D3684601F0E5F82846D9
:101750000BF0DAF903F0A4FB38BD2DE9FC470D4688
:101760005FEA00094FF0000432D002F0D9F9484690
:1017700001F076F80190B0F95440A54223D000F072
:1017800091F8804601980121A0F85450C06D8568F9
:1017900048462A68904707462A68032148469047EA
:1017A00006462A680021484690470546484600F00C
:1017B0005EF933463A4641464846009500F0E7F860
:1017C00048460BF0A1F901A801F0A6F803F068FB68
:1017D0002046BDE8FC872DE9F34F85B000270C4675
:1017E000B846059801F03CF80090C06D012185686D
:1017F00005982A68904782462A68032105989047F1
:1018000004902A6802210598904703902A680021D5
:1018100005989047064600980BF05AFE83460098BC
:101820000BF05DFE8146009890F83210890601D5D4
:10183000B0F9588000F036F805460098C06E10B137
:101840000AF0AAFE074625806780A4F804A0049A3F
:10185000ABEB020006EB0802401E2A4420813A440A
:10186000E280039BA9EB0302521E6281A4F80CA044
:1018700020827019E681401E6082684601F04CF8B3
:10188000B4F90C000190B4F91000029002AA01A969
:10189000059800F039F80198A0810298208207B0DD
:1018A000BDE8F08F10B50146002091F83220920675
:1018B00007D5B1F95400002803D1486B02F0C8F8ED
:1018C000801C10BD70B58AB00C46054600F0C8FFFC
:1018D0000990C06D866809A801F01EF8009534B122
:1018E000012C06D0022C0BD0032C04D10AE01820C6
:1018F00000E0162001907168684688470AB070BD04
:101900001520F7E71720F5E72DE9FC411746884633
:10191000044600F0A5FF0090C16D056868468E681A
:1019200000F0FAFF32680021204690470646204624
:101930000AF0FBFC27E000BF00F092FF0190B0F935
:1019400000102AB2B0F90430891A9A1AB0F902309C
:10195000A3EB2543B34210D190F82800000605D52B
:101960003868884209DB491E396006E0D8F8000073
:10197000904202DC521CC8F8002001A800F0CCFF05
:1019800020460AF077FD0400D6D1BDE8FC812DE9A0
:10199000FF4F83B00E460746DDF8409000F060FF31
:1019A0000190C16D8D68FFF77DFF044601A800F02E
:1019B000B3FF2A6801213846904783462A680321ED
:1019C0003846904782462A680021384690470546A7
:1019D000B44207D105998B4504D106998A4501D1B6
:1019E0004D4541D0A41B0026B04638460AF09DFC68
:1019F00038E000F035FF0090806A010601D58005CF
:101A000002E0810528D50006002825DB24B1224606
:101A1000114638460BF067F9009890F82800000648
:101A20000AD50698A5EB0902A0EB0A0004FB1601F3
:101A30003846761C0BF00AF90098008D80050BD50E
:101A40000599A5EB0902ABEB010004FB080108F1C5
:101A5000010838460BF0FAF8684600F05DFF38469A
:101A60000AF008FD0700C4D107B0BDE8F08F70B5DB
:101A700086B0064600F0F4FE0590D0E91A4505A8A8
:101A800000F04AFF54EA050026D069463046FFF7C9
:101A9000A2FEACB1BDF90620BDF9041020460BF042
:101AA000A8F8BDF90A00BDF90610421ABDF90800F0
:101AB000BDF90410521C411A2046491C0BF05FFB73
:101AC000002D09D0BDF90600BDF90210421ABDF97A
:101AD000041028460BF08DF806B070BD2DE9F043D8
:101AE0000446406889B005460AF0D1FC814600F002
:101AF000B7FE0290D0F84880D0F88070466E02A8F9
:101B000000F00AFF2068172853D008DC0E283AD0CE
:101B10000F2811D014284CD015283DD149E01E289B
:101B20001ED01F282AD0222840D0312834D10020AE
:101B3000E06009B0BDE8F0836FF070414046884531
:101B400003D005F0EFFB01F053F9002EF1D0D4E9FA
:101B500002122068CDE90405CDE9061204A81FE0B1
:101B6000E0680028E5D02FB1AF4203D038460BF033
:101B70002BFADEE728460BF07BFADAE721464846E7
:101B800009F09AFFD5E7E0684168002904DD0068A4
:101B90000928EFD00A2805D05EB12046C4F8049089
:101BA000B047C6E728460BF072FAC2E7C4F80C80CB
:101BB000BFE720460AF044FABBE7000051B18200BB
:101BC000A2F1C042126842F001038200A2F1C042B9
:101BD000136009E08200A2F1C0421268034B1A4070
:101BE0008300A3F1C0431A6070470000FEFF0F009E
:101BF000D0E901121143C2681143026911434269DD
:101C0000114382691143C2691143026A1143426A56
:101C10001143826A1143C26A1143026B1143026885
:101C20009200A2F1C0421160816808290BD10168BD
:101C30008900A1F1C041096841F0400201688900B2
:101C4000A1F1C0410A60416B0968426B526841EAE8
:101C50000211426B926841EA0221426B928941EA89
:101C60000241426B128A41EA0251426B127D41EA03
:101C70000261426B926911430268521C9200A2F108
:101C8000C0421160C16AB1F5804F1BD1816B0968F8
:101C9000826B526841EA0211826B926841EA02212A
:101CA000826B128A41EA0251826B127D41EA026123
:101CB000826B9269114302689200A2F1C042C2F89D
:101CC000041107E06FF0704201688900A1F1C04182
:101CD000C1F804217047000010B504460A2812D04C
:101CE0000D2C14D001F01CFF09480068C069016880
:101CF000204688470748016809B120468847BDE863
:101D0000104003F0CDB8BDE8104001F003BA10BD9B
:101D1000E00000200C0100202DE9F0430446C568D6
:101D200087B090468946002002F0A3FD064625B103
:101D3000287910B146F0020001E026F0020002F01E
:101D400098FD2069012558B1D4E902128DE82600DA
:101D5000039563882288046841464846A0471EE0F0
:101D6000124F134B214638681B68427CE068984745
:101D700030B9E088012801D0002001E03868806B8C
:101D8000A288E388A1680095CDE90410CDE902326C
:101D90000195638822884146484604F0BBFE07B09F
:101DA0003046BDE8F04302F064BD0000E0000020D2
:101DB000D80000202DE9F05F0646884640F2C32097
:101DC00002FB00F14FF47A7091FBF0F702FB02F195
:101DD00002EBD27001EB600B1446B118234A301BA2
:101DE0007F1C1268526E13680A46414698470125C7
:101DF00038E000BF05FB05F004FB040159451CDD7C
:101E0000BC4219DD194B06EB050AA6EB05091B6858
:101E1000AAF1010208EB04015B6E09F101001B68E5
:101E20009847124BAAF10102A8EB04011B6809F1C3
:101E300001005B6E1B689847641E0C4B3219301B07
:101E40001B68924608EB05015B6E81461B6898474C
:101E5000064B5246A8EB05011B6848465B6E1B68A3
:101E600098476D1CBD42C5DDBDE8F09FE000002035
:101E700010B5002002F0D6FC6FF07F4002F0DDFCD0
:101E8000012002F06FFD002002F07AFD002002F038
:101E900087FD002002F0EDFC0448006802F0F6FC2B
:101EA000BDE81040002002F02FBD0000DC00002043
:101EB000F0B50A4600210023002400BF3DE00125C3
:101EC00005FA01F3156805EA03049C4234D105685C
:101ED0004F000326BE40B543056015794E00B5405E
:101EE0000668354305601579012D02D01579022D5C
:101EF00016D185684F000326BE40B54385605579ED
:101F00004E00B540866835438560456801268E40A1
:101F1000B5434560456896798E40B6B23543456015
:101F2000C5684F000326BE40B543C560D5794E0055
:101F3000B540C6683543C560491C1029BFD3F0BD04
:101F4000F0B5002300244D07ED0E02FA05F3CE1084
:101F500000F1200555F826504E07F70E0F26BE401B
:101F6000B543CF1000F1200646F82750CE1000F1FF
:101F7000200555F8265045EA0304CE1000F120054F
:101F800045F82640F0BD0246002013690B400BB116
:101F9000012000E0002070474183704701837047B3
:101FA00070B50C46054600F0FFF8A8682168C162CC
:101FB00061680163A1684163490707D5D0E9002141
:101FC000C0E90012D0E90221C0E90212A18981848E
:101FD0002169002903D001DC4FF00001016270BDCE
:101FE0002DE9F0411E4617468846054600F0DCF80C
:101FF000AC686822414604F58670FEF72BF9284646
:10200000B8472846B047286980688047A062BDE885
:10201000F081000010B5044600F0C6F8A068114930
:10202000144AC0F8AC101049C0F8A8100F49C0F805
:10203000B0100F49C0F8B8100021C0F8BC101368E8
:10204000C0F8B4300C4BC0E932315168C0F8C4104C
:1020500030F8261F21F0030120F82A1B07494164AC
:1020600010BD000091430108F149010859430108DE
:10207000BF3D0108540100208F3E0108F1420108D4
:1020800010B5044600F090F8A46810481021C4F878
:10209000E4000F48C4F8E8000E48C4F8EC000E480D
:1020A000C4F8F0000D48C4F8A0000D48C4F8A4001E
:1020B000D4F8C400C4F8FC00D4F89420204690471B
:1020C0001020A0630748606410BD000065F7000899
:1020D000C9100108E920000819220008793D01080B
:1020E000DD510108A0AB0408F8B5846815460F4619
:1020F00094F8260080074CD5D4F800312046984744
:102100000646D4F804312A46394620469847D4F882
:10211000983005461BB100220121204698472069CE
:10212000B04201DD012000E00020A169B14201DAE6
:10213000012100E0002108436169A94201DD01217C
:1021400000E000210843E169A94201DA012100E031
:10215000002108430AD060680022401E00902368D6
:10216000D4F8A870114620465B1EB847D4F8AC30AE
:102170002A46314620469847D4F8A0102046884782
:10218000D4F8983005466BB10122002120469847CB
:1021900008E0D4F8AC3020469847D4F8A010204688
:1021A000884705462846F8BD70B504468068002873
:1021B00012D14FF4BA75284600F0C4FA2A4600211D
:1021C000A06003F08EFFA0680221C1840121046495
:1021D00001620249C0F8081170BD0000E121000849
:1021E00010B590B0044620220A496846FEF732F83E
:1021F00008492022203108A8FEF72CF8606B5DF812
:102200002010C4F8001108A951F82000C4F80401F6
:1022100010B010BD808104082DE9F8438468984609
:10222000154694F826000F46800740D5D4F80031B3
:10223000204698470646D4F804312A4639462046B7
:10224000984705462069B04201DD012000E00020EA
:10225000A169B14201DA012100E00021084361696E
:10226000A94201DD012100E000210843E169A94202
:1022700001DA012100E0002108430AD06068002251
:10228000401E00902368D4F8A870114620465B1EBB
:10229000B847D4F8AC302A46314620469847D4F89F
:1022A000A42001B041462046BDE8F0431047D4F8D1
:1022B000AC30F2E72DE9F04FDFF828B191B04FF0E4
:1022C000FF35DBF80030B3F922100691DE69B3F96F
:1022D00024A0F469A189814206D8E289824203D30D
:1022E000471AD4F8008012E0D4E90181002970D0A7
:1022F0000A8882426DD84D8885426AD3801A82B29C
:10230000486800EB8200B0F90070B0F90250781C08
:102310005FD0307EA27C014600FB02F9207CCDE933
:102320000710B3F92A60304605F04CF8C0B20E90A1
:10233000DBF8001007FB0980A37C8A6B0127CDE93D
:102340000402CDE90273C869089AC17E807ECDE996
:102350000001DDE90603514604F0DCFB681C18D0DF
:1023600046F0020005F02EF8DBF80000A37C05FB28
:102370000981826BCDE90273CDE90412C069089A24
:10238000C17E807ECDE90001DDE90603514604F0FF
:10239000C1FBDBF800005D46C069417E007E8142E2
:1023A00014D9022E12D086F0040005F00BF828682C
:1023B000C069027EC37E857E02FB03A1437E089A2C
:1023C0000698534402FB050204F030FD0E9804F019
:1023D000F9FFDBF80000627C418C1144418411B0AC
:1023E000BDE8F08FE000002004480068C069C069C3
:1023F00009B1027C0A60407C70470000E0000020C8
:10240000022008807047C06982898A4202D8C28946
:102410008A4210D2806880B102888A420DD84388EF
:102420008B420AD3406800EB8100A0EB8200B0F938
:102430000000002801DB01207047002070470000E9
:102440002DE9F0432F4C034687B020681946B0F9B8
:102450002A80C069C06900F082F800284ED0416827
:102460000088181A01EBC0054046AE7804F0AAFFB8
:10247000814620686A680123816BCDE90236CDE987
:102480000421C169CB7E8A7ECDE900230B7EB0F9A1
:1024900024102A78B0F9220004F03CFB2068C069BF
:1024A000477E067EB7421DD9C07E47434643B8F1FA
:1024B000020F17D001F043FA804601F009FA02F04A
:1024C000BCF921682A78CB69B1F92200B1F924104E
:1024D000DB7E02FB0302CB19314404F0A7FC40462B
:1024E00002F0ABF9484604F06DFF20686A78C369D2
:1024F000B0F922109B7E02FB0311418407B0BDE8B6
:10250000F0830000E000002030B50E4C05460B467D
:1025100020682946C069C06900F021F8002810D061
:102520004168008824682A1A0120E46900EBC2008F
:10253000085CA47E6043002B03D011F83210614385
:10254000196030BDE000002001200880704700B510
:10255000C06900F004F8002800D0012000BD06E0AA
:1025600002888A4202D842888A4202D280680028C1
:10257000F6D170472DE9F0410025154E154C18E0B5
:102580002069C5EB051700EBC7007022001D3168FC
:10259000FDF760FE2069002140F8371000EBC7000E
:1025A00000F10C018161011D0A1DC0E90F126D1CB3
:1025B0004164A0688542E3DB0FF0EEFE2169C0EBC9
:1025C000001001EBC000001D3060BDE8F08100008C
:1025D000E00000201803002070B50F490D48086086
:1025E000084603F0CDFC0C4C143CA068C0EB001076
:1025F000C500284600F0A6F82A460021206103F015
:1026000070FD4FF0FF30206002F0B2FCBDE870407A
:102610000FF0C2BE2D2C01082C030020F8B50C00D1
:1026200005460FD001F07CFA204600F017F80600AE
:1026300010D000F015F9224600902DB12946FDF783
:1026400009FE04E00020F8BD002103F04AFD6846C1
:1026500000F062F902F024FC3046F8BD10B5040029
:1026600009D001F05DFA20460BF066FC044602F04A
:1026700017FC204610BD002010BD38B5054601F0FE
:102680004FFA2846FFF7EAFF040009D000F0E8F807
:102690002A460021009003F024FD684600F03CF932
:1026A00002F0FEFB204638BD024A106021F0030014
:1026B000506070473433012010B5040016D001F08B
:1026C0002FFA0B48406B10F8341059B1022909D287
:1026D000042101EBC401415848680BF06BFB204614
:1026E00011F036FBBDE8104002F0DABB10BD00006F
:1026F00074320120002805D0034AD16B016001B17A
:102700004860D063704700007432012010B5044661
:1027100001F006FA2068FFF7CFFF00202060BDE837
:10272000104002F0BDBB000070B50D460646002407
:1027300005E000BF06EB8400FFF7E8FF641CAC4235
:10274000F8DB70BD2DE9F04104460FF0B7FF2848D3
:10275000E41C24F00305016C2D1DA94200D90D468F
:10276000C46B13E054F8042CAA420ED184B1216842
:1027700009B162684A60616809B122680A60C26B87
:10278000A24231D12168C1632EE02468002CE9D136
:102790008046816BC0680F1857F8040C3E1A3068E9
:1027A00038B1002011F0EEFB57F8040C3E1A3068E7
:1027B000D0B97068A84217DB3044441B3046241D52
:1027C00011F098FBD8F80C10491BC8F80C10D8F879
:1027D00014102944C8F814107068401B02D0314608
:1027E0000BF0E8FA44F8045C2046BDE8F0810000F4
:1027F0007432012010B500240FF060FF0C490F2047
:1028000001EBC002526C1AB101EBC000406C08E051
:10281000401EF5D508E04168A14200D90C46806809
:1028200010B180680028F6D1A4F10C0010BD0000A2
:1028300074320120002138B10449042202EBC000A7
:10284000496B085841680C390846704774320120BA
:1028500002488169491C816170470000743201207F
:102860000549CA69521CCA61496B01EBC0010A786B
:10287000521C0A7000F068B8743201207CB506461C
:102880000C460846FFF7EAFE050020D0FEB13046B0
:10289000FFF7D0FFA04200DA044601F041F92846D4
:1028A000FFF7DEFF00903046FFF7DAFF01460190A8
:1028B00022460098FDF7CEFC684600F02DF801A8EE
:1028C00000F02AF83046FFF7F7FE02F0E9FA284652
:1028D0007CBD000010B501F023F9FFF78BFF6422E7
:1028E0000849B0F5800F04D990FBF2F4086A44431C
:1028F00003E0096A4143B1FBF2F402F0D1FA204649
:1029000010BD00007432012002488169491E8161B6
:1029100070470000743201200A4902684B6B52F87C
:10292000082C03EBC2021378022B03D3CB690BB143
:102930005B1ECB611178491E1170002101600846B1
:102940007047000074320120002806D00349042299
:1029500002EBC000496B0858083070477432012000
:102960002DE9FC414FF000060B465FEA00083446B3
:102970002BD032B111461846FFF750FE060000D1A9
:1029800001244046FFF76CFF0090078845686846C1
:10299000FFF7C2FFCCB9B9002846091DFFF76EFF4B
:1029A000050015D0FFF75CFF019040F8276001A8F3
:1029B000FFF7B2FF4046FFF753FF009045600188E4
:1029C000491C01806846FFF7A7FF2046BDE8FC814F
:1029D0003046FFF771FE0124F7E70820FFF74DBEF0
:1029E0007CB5050023D0FFF73BFF00904068C0B1E5
:1029F000FFF736FF0024019005E0019800EB84000A
:102A0000FFF784FE641C00980088A042F5DC01A852
:102A1000FFF782FF0098001DFFF778FE0099002065
:102A200008806846FFF778FF2846FFF745FE7CBD23
:102A30007CB50C46FFF714FF00900188A14220D915
:102A40004568F5B101F06CF82846FFF709FF0190E1
:102A500000EB8400FFF75AFE00990888401E80B200
:102A60000880401E019905E001EB8402526841F89C
:102A70002420641C8442F7DD01A8FFF74DFF02F01B
:102A80000FFA6846FFF748FF7CBD38B5002430B127
:102A9000FFF7E6FE009004886846FFF73DFF2046FA
:102AA00038BD38B50D46002448B1FFF7D9FE294698
:102AB000009000F04EF804466846FFF72DFF2046D0
:102AC00038BD2DE9FF4107460E4615460024104645
:102AD000FFF7D3FD009030B33846FFF7C1FE314613
:102AE000019000F036F802900098FFF7B9FE2A46F0
:102AF00003900299FDF7AEFB02A8FFF70DFF03A8B4
:102B0000FFF70AFFDDE90020314600F02CF818B18C
:102B10006846FFF7FBFD03E00098FFF7A1FE0446BF
:102B200001A8FFF7F9FE04B02046BDE8F08138B5F2
:102B30000D4601880024A94209D9406838B1FFF741
:102B40008FFE009050F825406846FFF7E5FE2046CE
:102B500038BD10B50024FFF7EAFF10B1FFF780FE83
:102B60000446204610BD38B50C46014615460A8875
:102B70000120A24210D9496800290DD00846FFF76C
:102B80006FFE00EB840400902046FFF7BFFD68460F
:102B90002560FFF7C1FE002038BD70B50C46054624
:102BA00000F0F4FFC1B223462846BDE87040002281
:102BB000AFF30080F0B52D271C68B0F1004F08D0AE
:102BC000002600280DDA651C1D6027704042012494
:102BD00008E0651C01261D606FF000402770491E4B
:102BE00001E00024091BC9B22AB3491EC9B222E080
:102BF0000C46491EC9B2944205D1124C27781C6874
:102C0000651C1D602770104C54F8215090FBF5F4A2
:102C1000E4B20A2C11D804FB150011B90EB1641CE2
:102C2000E4B20A2C02D10124491CC9B21D686F1CF0
:102C300030341F602C700029DAD119680020087028
:102C4000F0BD0000D4000020B0B8040810B5044660
:102C500000F066FF044904EB840001EB8000447936
:102C600002F01EF9204610BD103401202DE9FC5F52
:102C70008946044600F054FF484600F06DFE2C4E95
:102C800009EB8907824656F82700019029484FF042
:102C90000108016841B92749C0F80080091D26488C
:102CA0000860084603F06CF9214A09EB8901BAF182
:102CB000000002EB81051BD001F098FD83464FF028
:102CC0007F4001F0AFFD00F093F80022114620682C
:102CD00000F09EFB206842880188504601F0F6FD16
:102CE00046F8274085F80580584601F07FFD17E03B
:102CF00046F8274085F805802869464618B101F056
:102D0000A5FC0020286174B10096E868A1684B46D4
:102D1000421AA8686168411A206801F0F1FC286134
:102D2000484611F0A5FF02F0BBF80198BDE8FC9FF2
:102D300010340120F4020020152C010870B514464F
:102D40000D46064600F0ECFE204600F005FE0300AE
:102D5000174804EB840109D050F8210041688068CD
:102D6000711A2A1A184601F0A1FD1CE000EB81043B
:102D7000A268B24201D0012200E00022E368AB4227
:102D800001D0012300E000231A430CD0236943B192
:102D900050F82100816840686A1A311A184601F01B
:102DA0007AFCC4E90265BDE8704002F079B8000021
:102DB0001034012010B5C2B2CBB2D21A00D55242A3
:102DC00093B25B43C0F30722C1F30724121B00D563
:102DD0005242000C92B2A0EB114002FB023200B250
:102DE000002801DA404200B280B200FB002010BD92
:102DF00010B50021084600F03FFE43F6FF72504236
:102E0000BDE8104013460146AFF300802DE9FC41B8
:102E10001C4615460E46074600F082FE042004F0CC
:102E2000D1FA80461248C068C16C006D0F44064458
:102E30000D440444ADF80070ADF80450ADF80260E4
:102E4000ADF8064068460AF051FB07E023462A46E3
:102E50003146384603F0EAFF0AF0FCFA0028F5D1C3
:102E6000404604F0AFFA02F01BF8BDE8FC81000018
:102E7000D4000020B0F90630B0F90420B0F90210F7
:102E8000B0F90000FFF7C2BF2DE9F8431C00DDE9EF
:102E9000089816460F46054602D109F01FFA044667
:102EA00000962E6843464A4621462846B047061EED
:102EB00039D009F008FA8146698A304608F090FE58
:102EC00030460AF091F948460AF08EF94FF00008B2
:102ED0000CE000BFCDF8008055F81CCF00231A4647
:102EE00049462846E04700B30AF07EF97F1E002FCE
:102EF000F0DC1D21484609F0CAFF601C12D000F02A
:102F00000FFE09F02FFA30B1FFF71EFD8469B442BD
:102F100001D02000F8D1B44202D030460AF0A8F81F
:102F200001F0BEFF3046BDE8F883304609F0C0F836
:102F30000020F8E72DE9F0411C4616460D460746ED
:102F4000022B02DB0020BDE8F0811C20FFF7FAFB1A
:102F50000028F8D00DB105610AE0094A52F82410A2
:102F600009B905E011460A68002AFBD10969016127
:102F700084618682002101604160C0E90217E2E7B6
:102F8000F800002070B51D46FFF7D4FF040009D0FB
:102F900000F00EF8E068006820B90348006800EB14
:102FA00085008465204670BDE0000020FFF7A2BBCD
:102FB00070B590B38269022A30DA1E4C54F82210A0
:102FC00019B944F8220032E019464B68002BFBD1B6
:102FD00006E0CB68C5681B682D68AB4203DD096855
:102FE0000029F6D11AE0C1B1CB68C6681B68366803
:102FF000B3420CD1838A012B05D008E01946DB6867
:103000001B68AB4203DB0B68002BF7D129B14B687F
:1030100033B118604A68426004E0FFE7012070BDE8
:1030200044F822004860884200D10021016000205D
:1030300070BD0000F800002010B503E00468FFF741
:10304000B7FF20460028F9D110BD00000A4A816967
:1030500052F82130834202D1036842F8213041689E
:1030600009B102680A60016809B142684A6000213A
:103070000160416070470000F800002000207047A8
:10308000022801DB00207047054951F8200004E0C8
:10309000C16809680029F6D000680028F8D1704797
:1030A000F80000202DE9F8431D4616468846040026
:1030B0000CD0FFF7D5FB0090006807686846FFF763
:1030C0002BFC2B46324641462046B847BDE8F883E4
:1030D00038B504004FF000000AD02046FFF7C0FBCF
:1030E0000090006845686846FFF716FC2046A84730
:1030F00038BD38B504004FF000000AD02046FFF775
:10310000AFFB0090006885686846FFF705FC204625
:10311000A84738BD10B500F003FD00F035FC0549A7
:1031200009688A8C10448884088C4884BDE8104063
:1031300001F0B6BEE00000202DE9FC4706005FD09C
:1031400000F0EEFC00F020FC3C4C81462068B0F919
:10315000228000F05DFC216807468A8CD01B8884A1
:1031600041E000BF47F6FF71304602F09DFD824608
:103170000146304602F06EFD2168054691F82C00AC
:1031800000F00300012841D002283BD000204A8CE7
:10319000101A4884ADF800006A1E1044ADF804000F
:1031A000888CADF80200A9F101010844ADF80600D1
:1031B0006A465146304602F087F82168BDF80200A1
:1031C00088845146304601F059FD064430780A287B
:1031D0001ED00D281CD0BDF800002168284448846A
:1031E000307818B1761C30780028BBD12068818CEB
:1031F00039448184818D21F00301818501F050FEE5
:10320000BDE8FC8705EBD5704010C0E72846BEE757
:10321000206890F82C1001F0030101290BD002293D
:1032200009D0018C418431780A29D9D1828C02EBF2
:1032300009018184D4E7A0F82280F4E7E0000020AF
:1032400070B514460D46064600F06AFC0548006855
:10325000458484843046FFF76FFFBDE8704001F07D
:103260001FBE0000E00000202DE9F04107460A489B
:1032700015460E460068B0F92C0040F0020001F03F
:103280007FFB04462A4631463846FFF7D9FF2046E1
:10329000BDE8F04101F074BBE000002047F6FF7389
:1032A000AFF300802DE9FC411F4690460D46060015
:1032B0004FF000041AD000F033FC65B1284609F045
:1032C00083FF040007D002462946684602F059FDF4
:1032D000684609F079FF3B4642462946304602F0EF
:1032E0004BF8204609F070FF01F0DAFDBDE8FC81E3
:1032F0002DE9FF4F87B09046894607007DD000F04A
:103300000FFCD9F80040D9F8045021B228B2401A75
:10331000401C029000F038FB064618F00C0F1ED03F
:1033200038460A9A029901F0F5FD08F00C010429CB
:1033300004D0082902D00C2911D104E0291400FB83
:103340001610401C09E02114C1EB254200FB162099
:10335000401C00EBD07001EB600060F31F44484656
:1033600009F032FF5FEA000B09D00246494604A883
:10337000CDE9044502F005FD04A809F025FFA6F1FA
:10338000010A38460A9A029902F07AFE03900AEB83
:10339000244060F31F45CDE900453846039902F00B
:1033A00059FC18F003010ED001292CD002290ED1AE
:1033B000B9F90420B9F90010521A101A00EBD070B4
:1033C00001EB600001E0B9F80000ADF800006A46CA
:1033D0003846039901F078FF38460A9A029902F0BC
:1033E00045FE074406EB244060F31F44387800286C
:1033F000C7D1584609F0E8FE00E001E001F050FDB9
:103400000BB0BDE8F08FB9F80410081A401CDCE7D7
:103410007CB514460D46064600F082FB1148006854
:10342000C16C006D0D4404443188681E0844ADF839
:103430000400ADF800507188601E0844ADF8060025
:10344000ADF8024068460AF051F806E022462946E7
:103450003046FEF761FC09F0FDFF0028F6D101F0CF
:103460001FFD7CBDE00000202DE9F04F87B09B469A
:10347000DDE9109892460C46054600F051FB1648CF
:103480000168C86C096D47190E1900EB0A0501EBBC
:103490000B04ADF81070ADF81450ADF81260ADF833
:1034A000164004A80AF022F888B1DFF830B04FF0D7
:1034B000000ACDE90098CDE902BA2B4622463946EA
:1034C00030460CF057FF09F0C5FF0028F1D101F09C
:1034D000E7FC07B0BDE8F08FE0000020D96D0008E0
:1034E0002DE9F04F87B09B46DDE9109892460C46D7
:1034F000054600F015FB16480168C86C096D4719B0
:103500000E1900EB0A0501EB0B04ADF81070ADF8D5
:103510001450ADF81260ADF8164004A809F0E6FFAB
:1035200088B1DFF830B04FF0010ACDE90098CDE95D
:1035300002BA23462A46314638460CF01BFF09F0F2
:1035400089FF0028F1D101F0ABFC07B0BDE8F08F96
:10355000E0000020196D00082DE9FC4114460D46DD
:10356000064600F0DDFA114F3968C86C096D054454
:1035700004440E44ADF80050ADF80440ADF80260CC
:10358000ADF80660684609F0B1FF08E038682246E9
:103590003146406E03682846984709F05BFF0028D3
:1035A000F4D101F07DFCBDE8FC810000E0000020CA
:1035B0007CB50C46064600F0B3FA0F4D2868C16C86
:1035C000006D0E440444ADF80460ADF80060ADF841
:1035D0000640ADF80240684609F088FF07E0286819
:1035E0002146406E42683046904709F033FF00287C
:1035F000F5D101F055FC7CBDE00000202DE9FC4137
:103600001C4616460D46074600F08AFA1A4801681D
:10361000087ECA6C096D17440D440C44401E391ACB
:103620001644ADF800103118ADF80410291A2044E2
:10363000ADF80600ADF80210684609F057FF15E036
:1036400032462946384603F067FB32462146384663
:1036500003F062FB621E691C384603F0BDFB621E6C
:10366000691C304603F0B8FB09F0F4FE0028E7D1EE
:1036700001F016FCBDE8FC81E00000207CB514469A
:103680000D46064600F04CFA0F480068C16C006D0C
:103690000E4405440444ADF80060ADF80460ADF894
:1036A0000250ADF80640684609F020FF06E02246C9
:1036B0002946304603F090FB09F0CCFE0028F6D1F5
:1036C00001F0EEFB7CBD0000E000002070B50C4670
:1036D000054600F04BF910B10121C0E9001400F0DB
:1036E0001FFA284609F038FEBDE8704001F0D8BB4B
:1036F00010B5002400E0012400F004F80028FAD1FD
:10370000204610BD094810B50068002410B180475C
:1037100000B1012408F056FD00B1012404480068FE
:1037200010B1804700B10124204610BD04010020E3
:10373000000100201CB5002100910191694601F0B3
:103740008DF804E0FFF7D4FF08B901F0B3FB00984F
:103750000028F7D001981CBD7CB5DDE90645CDE910
:103760000045FFF791FBBDE87C40FFF7E3BF000099
:1037700070B516460C46054600F0D2F90B480068B5
:10378000C16C006D0D440444002009F0AFFE06E05A
:10379000324621462846FEF70DFB09F05BFE002865
:1037A000F6D1BDE8704001F07BBB0000E0000020D6
:1037B0002DE9FC411C4615460E46074600F0B0F9BF
:1037C00010480068C16C006D0F4406440D44044469
:1037D000ADF80070ADF80450ADF80260ADF80640E9
:1037E000684609F083FE07E023462A4631463846FC
:1037F00003F01CFB09F02EFE0028F5D101F050FB70
:10380000BDE8FC81E0000020B0F90630B0F90420EA
:10381000B0F90210B0F90000FFF7CABF08B50B46B7
:10382000002805D0009281888268C08800F001F8E5
:1038300008BD10B50828029C30D008DC04FB01F458
:1038400001280AD0022813D0042804D11CE0102833
:1038500028D020282CD0002010BD04EBD30003F08A
:103860000701105CC1F10701C84000F0010010BD64
:1038700004EB93000621105C01EA4301C1F106014B
:10388000C84000F0030010BD04EB5300D907105CE2
:1038900002D000F00F0010BD000910BD04FB013084
:1038A000105C10BD481004FB003032F8100010BD51
:1038B000881004FB003052F8200010BD034951F875
:1038C0002000C1688A6A082110470000F800002023
:1038D00010B500F025F903F0D9FA03F0B9FB04465E
:1038E00001F0DEFA204610BD10B5044600F018F9CC
:1038F000054800210068C069426820469047044698
:1039000001F0CEFA204610BDE000002070B50C4654
:10391000054600F005F9064821460068C06942687E
:1039200028469047044601F0BBFA204670BD0000CF
:10393000E0000020002801D008F0A2BC704710B5BC
:1039400000F0EEF803F0AAFA03F082FB044601F05F
:10395000A7FA204610BD00000021022802D2024929
:1039600051F8201008467047100300201FB50021B1
:103970000191029103912A210091694609F078FA98
:10398000039804B010BD000010B500F0C9F8044859
:103990000068C069447E01F083FA204610BD000033
:1039A000E000002010B500F0BBF802F049F9044631
:1039B00001F076FA204610BD70B514460D46064655
:1039C00000F0AEF822462946304603F0D3FA10B193
:1039D000002028602060BDE8704001F061BA70B539
:1039E0000C46054600F09CF82146284602F086F970
:1039F000BDE8704001F054BA10B5044602F070F909
:103A000001462046BDE8104002F024B901F0ABBAEF
:103A100010B5002400F084F80B48006890F82C10D2
:103A200001F00C01042904D0082906D00C2907D183
:103A300003E0C069047E641E02E0C069007E4408A1
:103A400001F02EFA204610BDE0000020407E7047B5
:103A5000017EC07E48437047024951F8200000694A
:103A600000687047F8000020024951F82000006902
:103A700040687047F800002070B50D46044600F01D
:103A80004FF820460EF002FD044628460EF006FDD3
:103A9000044301F005FA204670BD00002DE9F04115
:103AA0001948016821F0010101601848012585606D
:103AB0001749016000681749884200D0FEE701F00D
:103AC00033FB154E2E20307001F051FA13480EF0E2
:103AD000BBFD13F047FA074603F074FA10B103F088
:103AE00085FA38B903F08BFA044603F074FA2146DC
:103AF00003F062FC0021084600F014FF08F05AFFB2
:103B000075703846BDE8F081002000E000300240CA
:103B1000C2A507F4CDB5E8B5D4000020403301209C
:103B200070B5184CE06820B101F019FA616888425C
:103B300004D001F031FA01F012FA6060E068401C34
:103B4000E06001281CD10EF027FC05462068854264
:103B500016D0002813DBFFF791FA01462068C0EB6E
:103B60000012206900EBC2025167C5EB0511064A3D
:103B700000EBC100011D1160406FFFF75DFA256089
:103B800070BD000018030020E000002010B5011EE9
:103B900001DD024600E04A42064B012053F8204076
:103BA000944202D8401C0A28F8DB002900DA401CA5
:103BB00010BD0000B0B804081CB5040004D10E48C4
:103BC0000068046E002C16D0FFF7AAFF2046FEF70F
:103BD00047FE009044696846FEF79EFE4CB12046C1
:103BE000FEF73EFE019081688968884701A8FEF7CC
:103BF00093FE01F055F91CBDE000002001490A4682
:103C000000F002B801F0FFFF2DE9F04387B0154640
:103C10000C465FEA000846D0FFF782FF002000F064
:103C200028FE814621480068066E4046FEF718FED1
:103C300000900068806900F0D9FD074640F6FF70EB
:103C4000C44204D10098B0F90440B0F9065000987D
:103C5000611E0289ADF804401144ADF80810418995
:103C6000681E0844ADF80650ADF80A0008F084F864
:103C70006846FEF751FE01A809F038FC06E02A4626
:103C80002146404600F0DEFB09F0E4FB0028F6D1B7
:103C9000384600F0ABFD304600F0E6F9484600F04B
:103CA000E8FD01F0FDF807B0BDE8F083E00000207A
:103CB00038B50024009400F001F838BD2DE9FE4F1E
:103CC000984691468A46834600270C9EFFF728FFB8
:103CD000184819490068407C51F82040E16809689B
:103CE000042903D02468002CF8D100E01CB9FFF7A8
:103CF000C7F9041E1BD0E0680121C26A2046904724
:103D0000050011D02469A0688047401C02D10B4CEB
:103D100046F001060096CDE9015443464A46514615
:103D2000584600F035FA074601F0BAF83846BDE8C3
:103D3000FE8F0000E0000020F800002070AE0408B4
:103D40002DE9FE4F9846DDE90D650C9F91468A46A8
:103D5000834600246DB1FFF7E3FE0097CDE90165CE
:103D600043464A465146584600F012FA044601F0CE
:103D700097F82046BDE8FE8F38B504001CD0FFF749
:103D8000CFFE0E480068006EA04201D100F020FD79
:103D90002046FEF765FD0090406908B101F069F822
:103DA00000980068FFF702F96846FEF7B5FD204667
:103DB000FEF782FC01F074F838BD0000E00000203E
:103DC0002DE9FF4F83B09A468B460746FFF7A8FEC2
:103DD000DFF83891D9F80000447C4D48005701289D
:103DE000204606DD03F0F4F80546204603F004F90A
:103DF00005E003F0D5F80546204603F0D7F8044661
:103E00001FB302A901A8FFF7EAFDB7F900000028D7
:103E100000DA0020B7F902608046002E00DA0026A2
:103E200001984119B7F90400491E0EF09FFD05469F
:103E300002980119B7F90600491E0EF097FDA5EB8F
:103E40000802841B521C641C03E04FF00008464625
:103E50002A46BAF1000F01D1C4F1000A002A51DD4F
:103E6000002C4FDD10980090534631464046FFF736
:103E700025FF5FEA000A10D000F0B0F80746A04224
:103E800006D0D9F80000806C10B1322109F0C8FECC
:103E9000504600F0E9F8002523E059460598884788
:103EA00000F0FEFF012007B0BDE8F08F611BB942B2
:103EB00002DA504600F0BCF83DB172194146504656
:103EC00000F0FAF85046FFF777FE59460598884704
:103ED0001048016809B1002088475046FFF78EFE60
:103EE0003D44A542E2DB5046FFF746FF002000F0CC
:103EF000BBF8A74206D0D9F80000806C10B133217E
:103F000009F08EFE00F0CCFF0020CCE7E00000209E
:103F1000180100206C03002038B505004FF00004A4
:103F200011D0FFF7FDFD2846FEF79AFC00900068CF
:103F300000698068804703F025FC04466846FEF768
:103F4000EBFC00F0ADFF204638BD38B504000ED0C4
:103F5000FFF7E6FD2046FEF783FC00F11804009011
:103F60006846FEF7D9FC00F09BFF204638BD0020D4
:103F700038BD000038B504460025FFF7D1FD1CB957
:103F800008480068046E44B12046FEF769FC0090C2
:103F9000B0F904506846FEF7BFFC00F081FF2846E8
:103FA00038BD0000E000002038B504460025FFF7CA
:103FB000B7FD1CB908480068046E44B12046FEF7FE
:103FC0004FFC0090B0F906506846FEF7A5FC00F0E3
:103FD00067FF284638BD0000E000002038B50446E1
:103FE0000025FFF79DFD1CB908480068046E44B128
:103FF0002046FEF735FC0090B0F90A506846FEF7FF
:104000008BFC00F04DFF284638BD0000E00000208A
:1040100070B50546002428460AF0E4FA641C18B17D
:10402000BDE8704000F07AB8052CF4DB70BD0000EC
:1040300038B50C46050004D10A480068056E002D0D
:104040000FD0FFF76DFD2846FEF70AFC0090B0F98F
:104050000A10A14200DD44816846FEF75DFC00F0D5
:104060001FFF38BDE0000020F8B50546FFF758FDFA
:10407000104E3068046ECDB10CB100F0A9FB07F012
:10408000CFFF2846FEF7ECFB009031680D66006814
:10409000FEF78EFF6846FEF73FFC03F005FA03F0DB
:1040A0006BF900BF00F0FCFE2046F8BD00F090FB6D
:1040B000F8E70000E00000207CB515460E4604003D
:1040C00004D115480068046E002C24D0FFF728FDA9
:1040D0002046FEF7C5FB2DB20090C58034B2848027
:1040E00003F04AF90098406980B1FEF7B9FB009AE5
:1040F0000190B2F908108180B2F90A20C28011B192
:104100000AB10480458001A8FEF706FC6846FEF768
:1041100003FC00F0C5FE7CBDE000002001490A461A
:1041200000F002B801F0FFFF7FB515460C4606000F
:104130002DD0FFF7F5FC3046FEF792FB40F6FF71FD
:104140000190CC4203D1B0F90440B0F90650028985
:10415000611E1144ADF80840ADF80C104189681E8D
:104160000844ADF80E00ADF80A5001A8FEF7D4FBE4
:1041700002A809F0BBF906E02A462146304600F0C5
:1041800049F909F067F90028F6D100F089FE7FBDF2
:104190002DE9FF4FDFF8E8B083B01C46DBF80010D4
:1041A000DDE9106092464FF000084B7C42461299C0
:1041B000FEF7C0FE050060D028698068804703F0E4
:1041C000E1FA81460AFB09F1C91DCF08FEF782FB1F
:1041D000F10705D1C11700EB9170801000EB400092
:1041E000002C09DC1FB11838B0FBF7F000E000200C
:1041F0006442A04200DC0446F00707D10090DDE9EC
:1042000003012346524600F0B9FD8046002C03DC32
:104210002846FEF7CBFE30E004FB07F01830F1072C
:1042200002D0FEF71BFA01E0FEF727FA06001CD0C9
:10423000FEF716FB01900560039981800499C18007
:10424000A0F808A04481C0F81480C0E9037901A84F
:10425000FEF762FB1298AE602861DBF80000407C3C
:10426000A861304607B0BDE8F08F2846FEF79EFEF5
:10427000B8F1000001D0FEF71FFA0020F2E70000BD
:10428000E00000202DE9F74F8EB0144689460E98C5
:10429000FEF7E6FA0990B0F908B0B0F90A600068D4
:1042A000006940680C9009A8FEF736FB564D574F41
:1042B0002868407C57F82000C1688A6A0821904726
:1042C0000790182801D3202007902868407C57F8D1
:1042D00020000069069003C80B904D48814201D030
:1042E000012000E000200A90002000F067FE002876
:1042F0007DD1286809EB0B01B0F90C20891A491E01
:10430000002902DDABEB010500E05D46B0F90810C5
:10431000494505DDA1EB090189446D1A089101E0C9
:1043200000210891002D6BDDB0F90E20A119891A2A
:10433000491E002902DDA6EB010800E0B046B0F9F5
:104340000A00A04204DD061B3444A8EB060800E086
:104350000026B8F1000F53DD089801900DA95F46C3
:10436000DDF830A00E980091FFF7EFFD774300EBEA
:10437000870101982B4601EB800200994846CDE960
:1043800000A1214601F0A8F80090002838D00A9832
:10439000E8B1DDE906322946009800F0BFFEB0B969
:1043A0000698009FDA46D0F810C0BCF1000F05D087
:1043B00004235A4639463846E04708E00B993868E6
:1043C000884701C7AAF101005FEA000AF6D1009907
:1043D0000020079ACDE90301059001200090CDE966
:1043E000010221460346641C2A46484600E007E0D5
:1043F00002F090FBA8F10100761C5FEA0008ABD147
:1044000011B0BDE8F08F0000E0000020F8000020AF
:104410009B700008F8B515460E460746FEF720FAD1
:10442000009000681621C068426A00209047044648
:104430006846FEF771FA002C03D02A46314638460A
:10444000A047F8BDF8B516460F46050012D0FEF796
:1044500007FA009044696846FEF75EFA2846FFF7BF
:104460005BFD0346082800DD2CB13246394628465C
:1044700010F0CAFEF8BD32463946284611F064F8FD
:10448000F8BD10B5002821D009B30AB3B1F9004036
:10449000B2F900309C4200DA23460380B1F90240B1
:1044A000B2F902309C4200DA23464380B1F904405D
:1044B000B2F904309C4200DD23468380B1F9061036
:1044C000B2F90620914200DC1146C18010BD1146B0
:1044D0000A6802604968416010BD00280BD003885B
:1044E0000B440380838819448180418811444180B2
:1044F000C1881144C180704770B50E4D0446D5E99E
:104500000001884209D10C49884201D13C3000E0C9
:104510000C3807C884E8070006E090E80E0084E83D
:104520000E000EF039F82860207A002800D0012013
:1045300070BD000024010020B03301200448D0E900
:104540000010814201D10120704700207047000017
:1045500024010020054A10B50349116010F09AFCAF
:10456000BDE8104000F02CBAC9C5000808010020C1
:1045700070B50025FFF7D4FA094CD4E90020824237
:104580000AD0D2E9005610460EF01EF820603146DF
:10459000284608F073FB012500F082FC284670BD18
:1045A000000300202DE9FC41154DDDE908742D685C
:1045B000B5F90860864200DD3046B5F90C609642D8
:1045C00000DA3246824219DBB5F90A608E4200DD1C
:1045D0003146B5F90E509D4200DA2B468B420DDB79
:1045E00000E02C46E5682D6825B1042D02D0256831
:1045F000002DF6D1CDE9007402F0A8FDBDE8FC81E4
:10460000E0000020B0F90220B1F906309A4213DC34
:10461000B1F90220B0F906309A420DDCB0F9002061
:10462000B1F904309A4207DCB1F90010B0F9040086
:10463000814201DC0120704700207047014602489A
:1046400070220068FBF706BEE000002038B50400C9
:1046500020D0FFF765FA204610F0C6FC204610F087
:1046600061FD2046FEF7FCF800900068FEF742F876
:104670000098C068FEF720F80098C069FEF71CF8A3
:104680006846FEF749F92046FEF716F8BDE83840BF
:1046900000F006BC38BD70B515460E4604000AD0C1
:1046A000FFF73EFA2A46314620460FF073FFBDE879
:1046B000704000F0F5BB70BD38B504001ED0FFF7A8
:1046C0002FFA2046FEF7CCF80090007C800710D42B
:1046D00020460EF00FF96846FEF71EF9204610F04E
:1046E000E3FA2046FEF7BCF80090018A41F002018F
:1046F00001826846FEF710F900F0D2FB38BD0000D9
:104700002DE9F84304460088089F91468846E8B39F
:104710006088D8B3E06818B1806800283BD002E018
:10472000E088202836D107F0010200212348FEF757
:1047300001FC05002ED02088860060884643FFF7E4
:10474000EFF906F12000FDF798FF060025D030466E
:10475000AE60FEF785F8009007824461A0F80480FF
:10476000A0F80690238808EB0301491E01816188A7
:104770004944491E418105606846FEF7CDF8E0686E
:1047800078B1214630460AF069F800E002E040B115
:1047900000F086FB0020BDE8F8832846FEF706FC03
:1047A000F6E7B80705D530460EF0A4F8304610F00D
:1047B0007BFA00F075FB3046EDE7000048B90408CD
:1047C000024970220968FBF745BD0000E0000020A7
:1047D00010B5FFF7A5F902F085FD02F065FE07F0C0
:1047E000CBFABDE8104000F05BBB000070B50B4D8C
:1047F00004462868467CFFF793F9022C09D220462C
:10480000FEF73EFC28B128684474FFF7E1FF044836
:10481000046000F045FB304670BD0000E000002061
:104820005802002010B50446FFF77AF9204602F03E
:1048300079FDBDE8104000F033BB10B50446FFF72A
:104840006FF9204602F0A6FDBDE8104000F028BB3D
:104850000149886070470000D40000201FB5002285
:10486000019202922A2203910092694608F000FB0D
:104870001FBD10B50446FFF753F9204602F0A2FD14
:10488000044600F00DFB204610BD000070B5044644
:10489000FFF746F904480068C56904B1C46100F037
:1048A000FFFA284670BD0000E000002070B51446F5
:1048B0000D460646FFF734F922462946304602F0F7
:1048C0009DFD044600F0ECFA204670BD70B514461C
:1048D0000D460646FFF724F922462946304602F0E7
:1048E000A3FD044600F0DCFA204670BD70B50C460E
:1048F0000546FFF715F92146284602F0C1FD04469A
:1049000000F0CEFA204670BD70B50546FFF708F9F5
:1049100003480068847E857600F0C2FA204670BDA8
:10492000E000002070B50C460546FFF7F9F809488D
:10493000224605800848048008480068417C0848F1
:1049400050F82100C1680B6A29469847BDE87040BD
:1049500000F0A6BA2001002022010020E000002083
:10496000F800002070B50546FFF7DAF80348006844
:10497000047E057600F094FA204670BDE000002029
:1049800070B50446FFF7CCF804480068B0F92C5025
:10499000848500F085FA284670BD0000E000002004
:1049A00070B50446FFF7BCF804480068B0F92A5017
:1049B000448500F075FA284670BD0000E000002034
:1049C00002480068002800D00047704748030020D4
:1049D00002498A6802B98860FFF7F2BF000300202D
:1049E0002DE9FC41984616460D460746FFF798F814
:1049F0001C20FDF742FE04002DD01C491A48086017
:104A00002046FDF72DFF009015B9FEF7FFFF054684
:104A100000980760C0E90465A0F80C806846FDF7BF
:104A20007BFF20460DF022FF114DA86840B9012000
:104A3000A86005F10C010F480860084601F0A0FAD3
:104A40002046FDF70DFF0190296849B181602C6077
:104A500001A8FDF761FF00F023FA2046BDE8FC81C4
:104A600000212C608160F3E7A14A000804010020C6
:104A700034030020412C010810B504000ED0FFF7CC
:104A80004FF820460FF050FA204610F023FB204646
:104A9000FDF712FEBDE8104000F002BA10BD0000A4
:104AA0002DE9F04188B00025FFF73AF8184C676807
:104AB00025E000BFFEF7AAFF06466068FDF7D0FEBE
:104AC00001904169891B002915DC616802960491F7
:104AD0000169039146686660D0F8008001A8FDF77F
:104AE0001BFF02A84146884766B160680125B842AD
:104AF00005D1002506E001A8FDF70EFF02E0606881
:104B00000028D7D100F0CCF908B02846BDE8F081E4
:104B10003403002038B50C46050011D0FFF700F82B
:104B20002846FDF79DFE00908089204201D0012497
:104B300000E000246846FDF7EFFE00F0B1F900E068
:104B40000124204638BD38B5040017D0FEF7E8FF31
:104B50002046FDF785FE0090FEF758FF01460098BD
:104B60008269114441616846FDF7D6FE204610F087
:104B7000B1FA20460DF07AFE00F092F938BD38B552
:104B80000C4605000BD0FEF7CBFF2846FDF768FE6C
:104B9000009084616846FDF7BFFE00F081F938BDE2
:104BA00038B50546002028600648046844B1204610
:104BB000FDF756FE0090006928606846FDF7ACFEE0
:104BC000204638BD3403002038B504004FF0000003
:104BD0000D46086011D02046FDF742FE0090846823
:104BE00044B16846FDF798FE2046FDF739FE009077
:104BF000006928606846FDF78FFE204638BD00003A
:104C000038B50024FEF78CFF0948406860B1FDF715
:104C100027FE0090FEF7FAFE009949690C1A00D5AC
:104C200000246846FDF778FE00F03AF9204638BDCA
:104C30003403002010B50024FEF772FF03484068DB
:104C400000B1012400F02CF9204610BD34030020EF
:104C50002DE9F041084E0446056830680168284691
:104C600088470746306841682846884728442060BE
:104C70003846BDE8F0810000E40000202DE9F04155
:104C80000C4606460025064F05E038684168304668
:104C9000884706440544641EF7D22846BDE8F081E3
:104CA000E40000202DE9F0411E46069C1746884688
:104CB00005463A46A8687F1C3346D0F804C04146F2
:104CC0002846E047641EF4D1BDE8F08170B5B0F924
:104CD0000040091BB0F904408C422CDD00F11404A3
:104CE000B0F902500069521B02FB0040CA1800EBE9
:104CF000E104521ED010B0EBE10501F007034FF0C4
:104D0000FF0102F0070221FA03F0C2F1070201FAE3
:104D100002F1CEB221780FD001436D1E04F8011BC1
:104D2000002D05DDFF2229462046FBF7B3FA2C446F
:104D300020783043207070BD30400143217070BD39
:104D400010B5B0F90030B0F90240C91A00F11403EF
:104D50000069121B02FB003000EBE10001F00703C9
:104D600002788021D9400A43027010BDB0F90610C4
:104D7000026951431430FBF794BA00002DE9F8435F
:104D8000804602F10F000011470003FB07F01C46AC
:104D9000154689461430FDF770FC060018D0FEF762
:104DA000BFFE3046FDF75CFD0090A0F80080A0F843
:104DB00002908580C480074981600121818107615B
:104DC0006846FDF7A9FD00F06BF83046BDE8F883B2
:104DD0000020FBE794C1040870B5B0F90660B0F993
:104DE00004400B6800F1140596421BDD0069A342E4
:104DF00002FB005000EBE30214DA641EE010A0EBAB
:104E0000E30512F8010B03F00704A040C4B206E06A
:104E100045B1083312F8014B23F007036D1E002C37
:104E2000F6D004E0002070BD6006040E5B1C200676
:104E3000FAD5FF2C07D0184602E06406240E401C69
:104E40006606FAD400E0D81DC443640705D006E026
:104E500012F8014BFF2C09D108306D1EF8D5C01A8D
:104E6000401C0B6070BD6206140E401C2206FAD472
:104E7000F5E738B50546FEF753FE2846FDF7F0FC8A
:104E800000908189491E0CB284816846FDF744FD7B
:104E900014B92846FDF710FC00F002F838BD0000F8
:104EA0000348C168491EC16001D100F07FB8704756
:104EB0001803002070B5FEF733FE14480568FDF7AF
:104EC000C7FC2C0004D000BFFFF7EAFF641EFBD133
:104ED0000F4CA06848B1FFF7ADFE48B1FFF790FE58
:104EE00040B1A16831B1884704E0FFF7A3FE08B9DB
:104EF00010F058F91DB1FEF713FE6D1EFAE7FDF72D
:104F000003FDBDE87040FFF7CBBF00002403002085
:104F1000480300202DE9F04116460F4605460024BF
:104F2000FEF7FEFD32463946284601F09FF805445B
:104F300008B1641CF6E7FFF7B3FF2046BDE8F08137
:104F400010B54FF448410348FDF7AEFB0248FFF7A8
:104F50007FFC10BD441B0020B4880408704710B5C6
:104F600012F059FB10BD10B512F0CEFA10BD70470B
:104F70001CB500200190009001A812F0CFFA04495E
:104F800008600121684612F02DFB024908601CBD33
:104F90002C0000203000002010B54FF0FF310248F7
:104FA000006812F0E9FA10BD2C00002010B502488C
:104FB000006812F0B9FA10BD2C0000200EB508B13F
:104FC00002AA00E00022002301A9684600F0EAFDE1
:104FD0000EBD0000074910B50C7818B1012008700B
:104FE000801E03E0002008706FF07F4001F07CFD20
:104FF000204610BD1A01002010B5082A0EDC034619
:10500000012A18D0022A56D0042A76D010F8042B90
:1050100003F8012B491EF9D1012010BD102A08DC2C
:105020004FEA000230F8043B22F8023B491EF9D156
:10503000F2E7002010BD10F8042BD207120E491E13
:1050400034D010F8044B491E04F0010442EA8412E3
:105050002CD010F8044B491E04F0010442EA44121B
:1050600024D010F8044B491E04F0010442EA041253
:105070001CD010F8044B491E04F0010442EAC4029B
:1050800014D010F8044B491E04F0010442EA8402D3
:105090000CD010F8044B491E04F0010442EA44020B
:1050A00004D010F8044B04F00104224303F8012B50
:1050B0000029C0D1B0E710F8042B9207120E491E48
:1050C00015D010F8044B491E04F0030442EA041200
:1050D0000DD010F8044B491E04F0030442EA840288
:1050E00005D010F8044B04F003042243491E03F8D2
:1050F000012B0029DFD18FE7FFE710F8042B1207FF
:10510000120E491E05D010F8044B04F00F04224380
:10511000491E03F8012B0029EFD17DE738B50024A3
:10512000009400F01DF838BD0B4810B581690029C6
:1051300010D101218161FFF703FFFDF74DFA02F065
:10514000C5F9054905481C310860BDE8104008460E
:1051500000F016BF10BD0000D40000208D2B010808
:105160002DE9F0410D460699044601B901461F6834
:10517000082A09DC0E46012A1AD0022A5BD0042A2A
:105180007DD0082A13D18DE0102A07DCD3F810C097
:105190000E46BCF1000F04D0022389E00020BDE8D8
:1051A000F08101CCB84726F8020B6D1EF9D189E0D9
:1051B00001CCB847C0074FEA10686D1E36D001CC4D
:1051C000B84748EA801000F0FF086D1E2ED001CCD1
:1051D000B84748EA401000F0FF086D1E26D001CC09
:1051E000B84748EA001000F0FF086D1E1ED001CC41
:1051F000B84748EAC00000F0FF086D1E16D001CC89
:10520000B84748EA800000F0FF086D1E0ED001CCC0
:10521000B84748EA400000F0FF086D1E06D001CCF8
:10522000B84740EA080000F0FF086D1E06F8018B41
:10523000002DBDD146E001CCB84780074FEA106889
:105240006D1E16D001CCB84748EA001000F0FF08E8
:105250006D1E0ED001CCB84748EA800000F0FF0870
:105260006D1E06D001CCB84740EA080000F0FF08E8
:105270006D1E06F8018B002DDDD123E0FFE701CC88
:10528000B84700074FEA10686D1E06D001CCB8473A
:1052900040EA080000F0FF086D1E06F8018B002DA3
:1052A000EDD10FE0D3F810C0BCF1000F04D0012302
:1052B0002A462046E04705E001CCB84706F8010B36
:1052C0006D1EF9D101206AE77CB5064628480D46D7
:1052D000006868B1002008F009F906E06A4629462E
:1052E000304609F06FFA08F0B5F80028F6D17CBD19
:1052F000106800901F4C506801902268BDF80000B3
:1053000032F84C1F0844ADF80000BDF80200918847
:105310000844ADF80200BDF8040011880844ADF857
:105320000400BDF8060091880844ADF80600684600
:1053300008F0DCF80EE000BF2068BDF800106A46F7
:105340004184BDF8021081842946304609F03AFABA
:1053500008F080F80028EFD1206830F8221F428D35
:10536000891A01804188C28D891A41807CBD000064
:105370001C010020E00000202DE9FF4F85B09A4677
:1053800090460D46FEF700FB4FF00009DDF814B023
:1053900006464C4625B1286800906868019002E0F6
:1053A0006846FEF7C7FA18F00C0F02D055460027E2
:1053B00013E0BDF902402DE029467F1C059800F05E
:1053C00073FC01466D1A0598FFF758FC05990844CF
:1053D000059005A800F0ACFC08B9002DECD108F050
:1053E0000C00042804D0082802D00C2812D105E0B3
:1053F000BDF9060007FB1604641C0BE0BDF90600AE
:10540000BDF90210401A07FB1600401C00EBD070DB
:1054100001EB60045546CDF814B043E029460598E9
:1054200000F042FC07460146ED1B059800F012FC17
:1054300018F003010ED0012939D002290DD1BDF990
:105440000410BDF90020891A091A01EBD17102EB91
:10545000610101E0BDF900108946174A401E484429
:1054600012683946A2F822909484ADF80C00A01975
:10547000401EADF80890ADF80E00ADF80A4002AA43
:105480000598FFF721FF39460598FFF7F7FB0599C7
:1054900008440590FEF778FA044405A800F048FC9B
:1054A000002801D1002DB9D109B0BDE8F08FBDF9B8
:1054B0000410091A491CCFE7E000002049B1002878
:1054C00002DAA0EB610001E000EB610090FBF1F07B
:1054D00070470020704700002DE9FF4F8DB000207D
:1054E000DDF86CA0164600901D4604460246CAF838
:1054F000000008AB03A902A800F054FB18B100207B
:1055000011B0BDE8F08F0898854200DD0546614F77
:105510000B9561493868407C51F820100491096965
:105520000691FEF7CBF905903868407CFEF79CFAAF
:105530005A498146884204D05949894501D0012001
:1055400000E000200A9001CE1A9988478346000E99
:10555000079077D0009870BB0D9800EB04084D4879
:105560000068B0F90800404503DDA0EB080780465D
:1055700000E000270298049900EB840000EB87000C
:10558000CDE900010B990D98421809920E9B4046F7
:105590001946521EFFF706F80120009005981828BA
:1055A0000ADA0298DDE9052300EB840000EB8700AE
:1055B000E91B00F055FA12E00A9880B1029800EB5E
:1055C000840000EB87070998A0EB08084946386873
:1055D000884701C7A8F101005FEA0008F6D1314809
:1055E000C06980B3DDE9020700EB840007EB8402A9
:1055F000CDE902022B4C361F3046E4692B46029956
:10560000A047FF213068B1EB106F02D1029800680B
:1056100004E0029A1268B1EB126F01D1039A106094
:10562000029806F10406001D02900398001D0390E5
:105630006D1EE7D10397DAF8000040F00101CAF8C7
:10564000001020E021E0FFE70798FF2811D0C0F10B
:10565000FF02029850F82410584600F02DFC0399E0
:1056600041F82400DAF8000040F00101CAF8001007
:1056700005E00298039950F8240041F82400641CC6
:105680006D1E7FF460AF03983AE7039941F824B0A8
:10569000E8E70000E0000020F80000209B70000810
:1056A00099700008B40200202DE9FF4F93B000204C
:1056B000DDF8908010906FF070400190DDE922508D
:1056C00017460543AD4E02EB47000F9030689A46EF
:1056D000209C407CFEF7C0F90A903068407CFEF7C1
:1056E000EDF80890182803D0082804DC012007E012
:1056F0002020089003E0102801DC022000E00420B4
:105700001190012D04D014984FF0000B079031E157
:105710009A480068407CFEF7A7F9404501D1012076
:105720001090002309AA1946184600F03BFA0028F9
:1057300072D10025A9462678FF2E01D086B193E0CC
:105740006D1CBD4207D1002509F10109BAF1000F16
:1057500062D0AAF1010A14F8030FFF28F0D0A3E0E9
:105760001398149928440D9001EB09000C9010989F
:10577000002678B10998A1786278E41C01EB022137
:105780006D1C761C20F8021BBD4225D02178002913
:10579000F1D057E01198012804D0022826D004281F
:1057A00050D13AE0DDE9080B01284BD0022849D05E
:1057B000042847D0082845D1A078617800EB012063
:1057C00080B2414688470A998847E41C6D1C761CC4
:1057D0000BF8010BBD4205D1002509F10109AAF121
:1057E000010A2FE020780028E6D02BE0DDF824B075
:1057F000A078617800EB012080B2414688470A9981
:105800008847E41C6D1C761C2BF8020BBD42E3D0CC
:1058100020780028ECD015E04AE0DDF824B0A0782C
:10582000617800EB012080B2414688470A99884799
:10583000E41C6D1C761C4BF8040BBD42CCD02078C8
:105840000028ECD0DDE908020DF1080B00230F99C8
:105850008BE80F000120009003460190DDE90C1059
:10586000324601F057F91FE0A178607801EB002083
:1058700080B241468847034614991398C6F1FF0247
:105880004944284400F084FB6D1CBD4207D100252B
:1058900009F10109BAF1000F0AD0AAF1010A14F8BE
:1058A000036F701EFE28DFD3BAF1000F7FF443AF01
:1058B00017B0BDE8F08F0799239808440C90401E5C
:1058C00003902E4801680398B1F90A2082424DDC0A
:1058D000B1F90E100798814248DB13980026069014
:1058E00042E0A0786178257800EB012080B2414643
:1058F000884701990090884203D001F04BFD009841
:105900000190FF2D2AD2069905B307980F910290B6
:10591000069922980844A0F1010903980D90C5F159
:10592000FF000590009804900F9D06E0DDE9043229
:105930002846029900F02CFB6D1C4D45F6DD0298BF
:105940000D99401C02908842EEDD07E02298039BEF
:105950000A18DDE90601521E01F068FA229906983C
:10596000E41C0844761C0690BE42BADB0C980BF18E
:10597000010B0790D3459EDB9AE70000E000002072
:105980002DE9F04F85B09B46DDE90F8792460C4626
:105990000546DDF83890FEF7C3F815480068C16C7D
:1059A0004E190D19016DABF1010001EB0A04ADF8C0
:1059B00010502044ADF80C60ADF81200ADF80E4068
:1059C00003A807F093FD0BE0CDF80090CDE9018727
:1059D0005B462246294630460AF0C2FF07F03AFDF0
:1059E0000028F1D1FFF75CFA05B0BDE8F08F0000A8
:1059F000E00000202DE9FF4F87B00C46DDE9169846
:105A0000DDE914BA0546FEF78BF81448099A0168D7
:105A1000C86C096D471985180E190A98ADF81070F1
:105A20000C18ADF81450ADF81260ADF8164004A88B
:105A300007F05CFD0BE0CDE90298CDE900BA234602
:105A40002A46314638460BF00FF807F003FD0028D0
:105A5000F1D1FFF725FA0BB0BDE8F08FE000002090
:105A60002DE9F05F0C1E16DD5E68014600EB840533
:105A7000082A12DC611E012A26D0022A47D0042AF5
:105A80006AD0082A07D1071917F8010DB04745F861
:105A9000040D641EF8D1BDE8F09F102AFBDC5F699D
:105AA0003FB12246BC46BDE8F04F02235DF804EB4F
:105AB000604701EB440700BF37F8020DB04745F8D7
:105AC000040D641EF8D1E6E700EBE10001F00707E2
:105AD00010F801A98146802020FA07F8B5F10405E5
