:020000040800F2
:10000000C84A012031020008390200083B020008FA
:100010003D0200083F020008410200080000000005
:10002000000000000000000000000000990100082E
:100030004502000800000000DD010008856B000893
:100040004B0200084B0200084B0200084B0200085C
:100050004B0200084B0200084B0200084B0200084C
:100060004B0200084B0200084B0200084B0200083C
:100070004B0200084B0200084B0200084B0200082C
:100080004B0200084B0200084B0200084B0200081C
:100090004B0200084B0200084B0200084B0200080C
:1000A0004B0200084B0200084B0200084B020008FC
:1000B000056E00084B0200084B0200084B020008C6
:1000C0004B0200084B0200084B0200084B020008DC
:1000D0004B0200084B0200084B0200084B020008CC
:1000E0004B0200084B0200084B0200084B020008BC
:1000F0004B0200084B0200084B0200084B020008AC
:100100004B0200084B0200084B0200084B0200089B
:10011000256F00084B0200084B0200084B02000844
:100120004B0200084B0200084B0200084B0200087B
:100130004B0200084B0200084B0200084B0200086B
:100140004B0200084B0200084B020008BD64000887
:100150004B0200084B0200084B0200084B0200084B
:100160004B0200084B0200084B0200084B0200083B
:100170004B0200084B0200084B0200084B0200082B
:100180004B020008DFF80CD000F042FB00480047AB
:1001900015100108C84A0120224B19680868B0E808
:1001A000F00F80F30988BFF36F8F4FF0000080F3EA
:1001B00011884EF00D0E70470000000006480068E0
:1001C000006880F3088862B661B6BFF34F8FBFF353
:1001D0006F8F00DF00BF00BF08ED00E0EFF3098084
:1001E000BFF36F8F0F4B1A6820E9F00F106008B54E
:1001F0004FF0500080F31188BFF34F8FBFF36F8F24
:1002000012F0F4FC4FF0000080F31188BDE80840C4
:1002100019680868B0E8F00F80F30988BFF36F8FA2
:10022000704700BF58000020EFF3058070470000C2
:100230000648804706480047FEE7FEE7FEE7FEE780
:10024000FEE7FEE7FEE7FEE7FEE7FEE7B96B000824
:100250008501000810B5431A934209D28318881803
:1002600003E010F8011D03F8011D521EF9D210BD64
:1002700040EA01039B0703D009E008C9121F08C028
:10028000042AFAD203E011F8013B00F8013B521EA8
:10029000F9D210BDD2B201E000F8012B491EFBD209
:1002A00070470022F6E710B513460A460446194681
:1002B000FFF7F0FF204610BD421C10F8011B00297B
:1002C000FBD1801A7047034611F8012B00F8012B6F
:1002D000002AF9D1184670472DE9FE4F81EA030440
:1002E00004F0004421F0004100944FF0000B23F093
:1002F000004350EA01045ED052EA03045BD0C3F32A
:100300000A54C1F30A552C44A4F2F3340194A0FB1F
:100310000254C1F3130141F48011C3F3130343F4F6
:10032000801301FB024400FB034E840A970A44EA4F
:10033000815447EA8357A4FB076802958D0A05FBA1
:1003400007854FEA932C04FB0C542705029D4FEAC6
:10035000065847EA1637B5EB08056EEB070C870E13
:10036000920E47EA811742EA8312A7FB0201B6EB1D
:100370000B0164EB00042B0D43EA0C335E1844EBD5
:100380001C50DA465146E7FB0201C5F313044FEA5D
:100390000B3343EA14534FEA0432019C43EA060349
:1003A000A4F10C040294009CCDE900B400F00BF918
:1003B00003B0BDE8F08F00200146F9E72DE9F04DCC
:1003C00081EA030404F0004B21F0004514464FF08D
:1003D000000A23F0004150EA050220D054EA01024D
:1003E0001DD0C5F30A570246C5F31303C1F313002A
:1003F000C1F30A5640F4801543F48013A7EB0608B6
:10040000101BD64608F2FD3873EB050002D308F145
:10041000010801E092185B41B8F1000F03DA0020F7
:100420000146BDE8F08D00204FF480110646844659
:100430000EE0171B73EB050705D3121B63EB0503D7
:1004400006434CEA010C49084FEA300092185B4120
:1004500050EA0107EDD152EA030012D082EA04000B
:1004600083EA0501084305D0101BAB4106D20122E7
:10047000002306E000224FF0004302E06FF001028B
:1004800053101AEB06004CEB085110EB0A0041EB3D
:100490000B01BDE8F04D00F087B80EB5C10F80EA42
:1004A000E0700844CA07002140F233438DE80E0093
:1004B0000A460B4600F087F803B000BD70B5C1F3E3
:1004C0000A5201F000450024C1F3130140F2FF334A
:1004D00041F480119A4201DA002070BD40F23343AA
:1004E0009A42A2F2334203DC524200F04DF800E09F
:1004F00090402C43F1D0404270BD30B50B460146D0
:1005000000202022012409E021FA02F59D4205D3B2
:1005100003FA02F5491B04FA02F52844151EA2F15C
:100520000102F1DC30BD2DE9F05F05460020924666
:100530009B4688460646814640241BE028464146A5
:100540004746224600F020F853465A46C01A9141C9
:1005500010D311461846224600F06CF92D1A67EBAD
:1005600001084F4622460120002100F063F917EBF5
:1005700000094E41201EA4F10104DFDC484631464B
:100580002A464346BDE8F09F202A04DB203A21FAA0
:1005900002F00021704721FA02F3D040C2F120029C
:1005A000914008431946704710B5141E73F10004BA
:1005B00008DA401C41F1000192185B411A4301D155
:1005C00020F0010010BD2DE9F04D92469B4611B17F
:1005D000B1FA81F202E0B0FA80F22032904600F0E7
:1005E00029F904460F4640EA0A0041EA0B01534646
:1005F0005A46084313D0114653EA010019D0C8F1F6
:1006000040025046FFF7C0FF05460E465046594689
:10061000424600F00FF9084305D0012004E02046CF
:100620003946BDE8F08D0020054346EAE0762C43CC
:1006300037430A986305E40AA0EB08000022FD0A8C
:1006400044EA47540A3002D500200146E9E7010593
:1006500010196941DDE9084500196941BDE8F04D0F
:10066000A2E72DE9FE4F804681EA0300C00F0C4649
:10067000009021F0004123F00045B8EB0200A941B1
:1006800005D24046214690461C460B46024623F0C2
:100690000040104347D0270DC7F30A00C3F30A51A7
:1006A0000290401A019040286BDAC3F3130040F423
:1006B000801B0098924620B10023D2EB030A63EB23
:1006C0000B0B01985946C0F14002504600F0B2F8B9
:1006D00006460D4650465946019A00F0BAF810EB0E
:1006E00008006141002487EA115284EAE7731A4343
:1006F00040D0009A62B3019A012A4FEA075215DCF2
:10070000001B61EB02014FF0004202EA0752CDE903
:100710000042001C41F5801132462B46FFF753FF83
:1007200003B0BDE8F08F40462146F9E7001B61EBBE
:100730000201001C41F5801300185B412018A2F54E
:10074000001747EB030140EAD570B6196D4111E07F
:100750006D084FEA360645EAC0754FEA0752001B9E
:1007600061EB0201001C41F5801149084FEA30009D
:100770000019514132462B4603B0BDE8F04FFFF758
:1007800013BF0098012240000023D0EB020263EB6C
:10079000E073009821464FEAE074B8EB000061EB8B
:1007A0000401E9E783F000435BE781F0004158E78B
:1007B000C1F30A52C1F3130140F2FF3341F4801137
:1007C0009A4202DA00200146704740F233439A42CF
:1007D000A2F2334202DC5242FFF7D6BE00F02AB842
:1007E00030B5041E71F1000404DB4FF000444042B8
:1007F00064EB0101141E73F1000405DB1C464FF08D
:100800000043524263EB0403994208BF904230BD5B
:10081000064C074D06E0E06840F0010394E807004D
:1008200098471034AC42F6D3FFF7B0FC58B6040832
:1008300078B60408202A04DB203A00FA02F10020EE
:1008400070479140C2F1200320FA03F3194390400E
:100850007047202A06DBCB17203A41FA02F043EA20
:10086000E07306E041FA02F3D040C2F12002914069
:1008700008431946704770B58C1810F8015B15F0E5
:10088000070301D110F8013B2A1106D110F8012B02
:1008900003E010F8016B01F8016B5B1EF9D12B0727
:1008A00005D40023521E0DD401F8013BFAE710F8DD
:1008B000013BCB1A921C03E013F8015B01F8015BCA
:1008C000521EF9D5A142D8D3002070BD10B5044600
:1008D00004F003040421094801F010F9204600F057
:1008E0004DF80421054801F00BF9642000F00AF8E6
:1008F0000348007800F082F810BD000000000240BC
:10090000B400002000BF0100A0F1010290B2FAD1B2
:10091000704700001CB50121084605F0DDFD0C20E4
:10092000009002208DF8050001208DF80400694632
:10093000114801F06FF81020009002208DF805009A
:1009400000208DF8040001208DF8070069460A4850
:1009500001F060F80821084801F0D0F842F2107068
:10096000FFF7D0FF0821044801F0CAF842F21070E6
:10097000FFF7C8FF1CBD00000000024010B5044690
:1009800000222146014811F0D1F910BD003001408C
:1009900010B504210D4801F0B1F8FF20FFF7EEFF7C
:1009A000FF20FFF7EBFFFF20FFF7E8FFFF20FFF737
:1009B000E5FFFF20FFF7E2FF0421044801F0A0F863
:1009C0004FF4FA70FFF79EFF10BD000000000240D8
:1009D00010B504460421084801F090F82020FFF7E4
:1009E000CDFF2046FFF7CAFF0421034801F088F835
:1009F0006420FFF787FF10BD0000024010B50446D9
:100A00000421084801F07AF81020FFF7B7FF2046CC
:100A1000FFF7B4FF0421034801F072F86420FFF7E8
:100A200071FF10BD0000024070B505460C46084835
:100A30000560204600F00EF800BF05480068002859
:100A4000FBD100214FF0804006F006FA70BD000097
:100A5000B00000203EB5044600214FF0804006F073
:100A6000FBF900220121880706F012FA022C02D1BC
:100A70000B20019004E0012C02D142F6DF600190CE
:100A80000520ADF800000020ADF80800ADF8020028
:100A900069464FF0804006F005FA0121880706F00C
:100AA000D8F90121880706F0C9F9012211469007FB
:100AB00006F0EEF90121880706F0CEF93EBD2DE9DA
:100AC000F047044640688EB00027804601F04CFC99
:100AD0000090B0F87CA0D0F86890D0F88060D0F892
:100AE0008850C06D00B10768684601F06DFC05E0F4
:100AF000696820468847002843D12D68002DF7D12A
:100B00002068172853D00CDC0F283DD004DC0B28BC
:100B100077D00D2825D18BE0112810D0142820D1B2
:100B20003BE0262846D004DC1E2851D0202818D1CE
:100B30008AE02A2816D0B0F5107F12D128E040466E
:100B4000E56801F011FC0290697A39B9297A012926
:100B500004D130F87C1F41F48071018002A801F0BB
:100B600033FC75E0404601F0FFFB0090E16811B1F5
:100B7000C0F8841002E0D0F88400E060684601F01C
:100B800023FC0EB0BDE8F087D7B34046B8475FE01E
:100B9000214640460DF0B6FAF3E705A9404600F0BD
:100BA000CCFBE0680699016007994160E9E7C4F869
:100BB0000C90E6E7E0680228E3D1CDF83080E068E9
:100BC0000D9027200A900AA9A0680AF0CFF9D8E76B
:100BD000E068012804D00021404600F0BCFAD0E7CC
:100BE000304609F022FA68B1304609F0FBFB304686
:100BF00009F0F8F898B10121304608F0B7FB0EE093
:100C000026E02FE0484609F041FC0646404601F048
:100C1000ABFB0090C0F88060684601F0D5FB012175
:100C2000404600F098FA002EABD10020E060A8E723
:100C30005FEA0A700CD4E068C06848B1007A38B145
:100C4000404609F0CFFB03E0214640460DF0B8F9DD
:100C50002146404608F0F6FA002892D0204608F0D7
:100C6000D9FC8EE7404601F07FFB0090703001F028
:100C7000DFFA684673E7F0B587B0B0F908400DF1C8
:100C80000C0C0C9E876945688CE8F000448A0025AE
:100C9000CDE900150294B0F90C10B0F91050B0F97C
:100CA0000E40B0F90A00194410442B46224600F0C9
:100CB00003F807B0F0BD00002DE9F04F8BB0984667
:100CC000DDE9155691468A468346149F1A9C02F028
:100CD000FDF93348603445F48055CDE90204CDE98F
:100CE000007543464A465146584608F0DBFB04006F
:100CF0004FD001F039FB30220490179908F072FBB5
:100D00000498282227493430FFF7A4FA0498199947
:100D1000244F4166A0F87C600026C0F88060C6665B
:100D2000083FC0F888607968C16504A801F04CFBF1
:100D300005A9204600F001FB1B4841F28271039691
:100D40000094CDE90110BDF91E00BDF91A10BDF9DE
:100D50001C20431ABDF918005B1C121A521C08F023
:100D6000A1FB06467868416820468847204601F086
:100D7000FBFA0490866604A801F026FB42F2040008
:100D8000054202D1204608F0F5FC2046189900F0F3
:100D90003EFA03F0CBF90BB02046BDE8F08F00001F
:100DA000BF0A000864010020411600082DE9F04147
:100DB000044694B0006800F0B7F908B1D94D01E0DD
:100DC000D84D2C35606815281ED00CDC0B281FD0A0
:100DD00004DC00287ED005287DD12FE10E287BD0B1
:100DE0001228F9D141E1162806D0172808D0182872
:100DF00008D01C28F0D109E0E86914B0BDE8F08102
:100E0000286AFAE7686AF8E7A86AF6E76869F4E723
:100E100020680B901C200C90206801F0A5FA03902C
:100E2000016D0BA88847064603A801F0CDFA022EF3
:100E30000FDB95E807008DE80700D4E9040233468C
:100E4000A16903F0D5FE20698719A069A0EB060807
:100E50002CE0286802F009FF2169E8690A18521E8F
:100E6000606901F065FEA269E869111A491C6069B0
:100E700001F05EFED4E904077F1C394601F084FED0
:100E80003946A06901F080FE686802F0EEFE206934
:100E90003946401C01F078FEA0693946401E01F039
:100EA00073FEA0692769A0F10208BF1C286802F040
:100EB000DCFE42463946606901F03AFE686802F09D
:100EC000D4FE606942463946401C01F031FE686A32
:100ED000022802E015E1B0E000E10BDDA86802F0B5
:100EE000C4FE61696A6A881C8B180146424638460E
:100EF0005B1E27E0296AB14226DD6069022E0746A3
:100F000000F1020801DB374401E007F10207206924
:100F100001DB304401E000F1020022693B460A4453
:100F20004146A2F1010201F02FFF022E02DBA0696F
:100F3000821B01E0A269921EA069E9693B46401A42
:100F40004146401C01F020FF022E02DB606906448E
:100F500001E06669B61CE76928687F1E02F085FE1D
:100F60003A463146206901F075FE3A463146A0699D
:100F700001F070FEE7696868BF1E02F076FE206926
:100F80003A463146401C01F065FEA0693A463146BA
:100F9000401E01F05FFEE869022802DC286A022890
:100FA00023DDA86A022802DDE1690F1A01E0E76982
:100FB000BF1EA86802F059FEE969022909DD20690F
:100FC0003B46421800F1020C31466046521E01F0C9
:100FD000DBFE286A022808DDA269E8693B46101A90
:100FE0003146401C921E01F0CFFE286802F03DFE03
:100FF000D4E90620216901F09BFD686802F035FE06
:10100000D4E906202169401E491C521E01F090FDC2
:10101000A86A022811DDA1692669E469A1F1020824
:10102000271AA41EB61C7F1CA86802F01EFE2346C9
:1010300042463946304601F0A7FE71E0208A00B2F0
:10104000ADF81400A18A09B2ADF81610228B12B2C5
:10105000ADF81820A38B1BB2ADF81A302C69ED68DF
:10106000CDE9005401F028FD5AE0208A298B08447C
:10107000ADF81400A08AADF81600208B298B401A19
:10108000ADF81800A08BADF81A00206801F06CF9DB
:101090000390006FF0B1022002F07CFE039890F8FC
:1010A0007C10C1F3C00100EB8100006C02F0DDFD9B
:1010B0000398406B02F002FE0398006F01F054F9B0
:1010C00003990990B1F95A2005A901F00FFC09A86C
:1010D00001F07AF903A801F077F921E0208AADF850
:1010E0001400A08AADF81600208BADF81800A08B74
:1010F000ADF81A00A86802F0B8FD05A801F070FE6E
:101100000EE0206801F030F9039030F85A1F41F0EA
:101110000C01018003A801F057F9206809F0E8F9F3
:1011200000206AE6C802002038B505004FF0000430
:101130000FD001F0CBFF284601F016F9009090F88F
:101140007C00000700D50124684601F03DF902F05B
:10115000EDFF204638BD70B50D46040009D001F002
:10116000B5FF294620460DF0A5FBBDE8704002F012
:10117000DDBF70BD38B50C46050011D001F0A6FFEB
:10118000284601F0F1F80090816CA14203D08464FC
:10119000806E08F0E1FE684601F016F902F0C6FF25
:1011A00038BD2DE9FC410D46804601F08FFFB8F1B6
:1011B000000028D001F0D8F80190C16D8C6800F0D3
:1011C00023F907460198456301A801F0FDF822685C
:1011D0000121404690470646226803214046904739
:1011E000054622680021404690470446404600F0EC
:1011F000F0F92B46324639464046009400F079F922
:10120000404608F0A9FE02F091FFBDE8FC817CB5E4
:101210000D4604001DD001F059FF204601F0A4F84E
:101220000090006F0190684601F0CEF8294601A8B1
:1012300003F0D0FF58B1204601F096F800900199D4
:101240000167684601F0C0F8204608F085FE02F00C
:101250006DFF7CBD38B50C46050013D001F036FF9C
:10126000284601F081F80090B0F95A10A14204D04C
:10127000A0F85A40284608F06FFE684601F0A4F82E
:1012800002F054FF38BD000038B50C46050015D0FB
:1012900001F01CFF284601F067F80022CDF800009D
:1012A00000EB8201521C0C64022AF9D3684601F05B
:1012B0008BF8284608F050FE02F038FF38BD2DE9C3
:1012C000FC470D465FEA00094FF0000432D001F000
:1012D000FDFE484601F048F80190B0F95440A5429F
:1012E00023D000F091F8804601980121A0F85450D5
:1012F000C06D856848462A68904707462A680321DA
:101300004846904706462A680021484690470546C9
:10131000484600F05EF933463A4641464846009555
:1013200000F0E7F8484608F017FE01A801F04CF875
:1013300002F0FCFE2046BDE8FC872DE9F34F85B0A6
:1013400000270C46B846059801F00EF80090C06DD5
:101350000121856805982A68904782462A680321FA
:101360000598904704902A680221059890470390B9
:101370002A680021059890470646009809F084FAEB
:101380008346009809F087FA8146009890F8321059
:10139000890601D5B0F9588000F036F80546009866
:1013A000C06E10B108F03BFB074625806780A4F8AB
:1013B00004A0049AABEB020006EB0802401E2A448C
:1013C00020813A44E280039BA9EB0302521E628112
:1013D000A4F80CA020827019E681401E6082684645
:1013E00000F0F2FFB4F90C000190B4F91000029083
:1013F00002AA01A9059800F039F80198A081029885
:10140000208207B0BDE8F08F10B50146002091F8AA
:101410003220920607D5B1F95400002803D1486B59
:1014200001F0ECFD801C10BD70B58AB00C4605467D
:1014300000F09AFF0990C06D866809A800F0C4FF0B
:10144000009534B1012C06D0022C0BD0032C04D112
:101450000AE0182000E0162001907168684688476D
:101460000AB070BD1520F7E71720F5E72DE9FC411C
:1014700017468846044600F077FF0090C16D056866
:1014800068468E6800F0A0FF326800212046904731
:101490000646204608F033FA27E000BF00F064FF5C
:1014A0000190B0F900102AB2B0F90430891A9A1AE2
:1014B000B0F90230A3EB2543B34210D190F82800D5
:1014C000000605D53868884209DB491E396006E008
:1014D000D8F80000904202DC521CC8F8002001A895
:1014E00000F072FF204608F045FA0400D6D1BDE8AE
:1014F000FC812DE9FF4F83B00E460746DDF8409092
:1015000000F032FF0190C16D8D68FFF77DFF04464A
:1015100001A800F059FF2A68012138469047834608
:101520002A6803213846904782462A6800213846B7
:1015300090470546B44207D105998B4504D10699D9
:101540008A4501D14D4541D0A41B0026B0463846FE
:1015500008F0D5F938E000F007FF0090806A010636
:1015600001D5800502E0810528D50006002825DB8D
:1015700024B122461146384608F0DDFD009890F867
:10158000280000060AD50698A5EB0902A0EB0A0080
:1015900004FB16013846761C08F080FD0098008D8B
:1015A00080050BD50599A5EB0902ABEB010004FB07
:1015B000080108F10108384608F070FD684600F09F
:1015C00003FF384608F0D6F90700C4D107B0BDE8DC
:1015D000F08F70B586B0064600F0C6FE0590D0E9E3
:1015E0001A4505A800F0F0FE54EA050026D0694629
:1015F0003046FFF7A2FEACB1BDF90620BDF90410DC
:10160000204608F01EFDBDF90A00BDF90610421A79
:10161000BDF90800BDF90410521C411A2046491CAE
:1016200008F08AFF002D09D0BDF90600BDF90210AF
:10163000421ABDF90410284608F003FD06B070BD3B
:101640002DE9F0430446406889B0054608F09FF94B
:10165000814600F089FE0290D0F84880D0F8807072
:10166000466E02A800F0B0FE2068172853D008DCB0
:101670000E283AD00F2811D014284CD015283DD16F
:1016800049E01E281ED01F282AD0222840D0312809
:1016900034D10020E06009B0BDE8F0836FF0704104
:1016A0004046884503D004F06FFC00F00BFF002E8D
:1016B000F1D0D4E902122068CDE90405CDE9061283
:1016C00004A81FE0E0680028E5D02FB1AF4203D0A6
:1016D000384608F087FEDEE7284608F0D7FEDAE74E
:1016E0002146484607F0AEFDD5E7E068416800298D
:1016F00004DD00680928EFD00A2805D05EB1204635
:10170000C4F80490B047C6E7284608F0CEFEC2E70A
:10171000C4F80C80BFE7204607F07CFFBBE7000061
:1017200051B18200A2F1C042126842F0010382006E
:10173000A2F1C042136009E08200A2F1C042126827
:10174000034B1A408300A3F1C0431A6070470000A6
:10175000FEFF0F00D0E901121143C2681143026974
:1017600011434269114382691143C2691143026AFC
:101770001143426A1143826A1143C26A1143026BE8
:10178000114302689200A2F1C042116081680829E9
:101790000BD101688900A1F1C041096841F0400204
:1017A00001688900A1F1C0410A60416B0968426B80
:1017B000526841EA0211426B926841EA0221426B8F
:1017C000928941EA0241426B128A41EA0251426B1C
:1017D000127D41EA0261426B926911430268521C18
:1017E0009200A2F1C0421160C16AB1F5804F1BD1D5
:1017F000816B0968826B526841EA0211826B9268C0
:1018000041EA0221826B128A41EA0251826B127D07
:1018100041EA0261826B9269114302689200A2F16F
:10182000C042C2F8041107E06FF0704201688900FD
:10183000A1F1C041C1F804217047000010B5044671
:101840000A2812D00D2C14D001F040FC0948006881
:10185000C0690168204688470748016809B12046E9
:101860008847BDE8104002F061BCBDE8104000F0C0
:1018700079BF10BDE00000200C0100202DE9F043ED
:101880000446C56887B090468946002002F009FAF0
:10189000064625B1287910B146F0020001E026F095
:1018A000020002F0FEF92069012558B1D4E90212C4
:1018B0008DE82600039563882288046841464846DF
:1018C000A0471EE0124F134B214638681B68427C2C
:1018D000E068984730B9E088012801D0002001E095
:1018E0003868806BA288E388A1680095CDE9041070
:1018F000CDE902320195638822884146484603F0CB
:101900003BFF07B03046BDE8F04302F0CAB9000023
:10191000E0000020D80000202DE9F05F0646884650
:1019200040F2C32002FB00F14FF47A7091FBF0F714
:1019300002FB02F102EBD27001EB600B1446B1180E
:10194000234A301B7F1C1268526E13680A464146B8
:101950009847012538E000BF05FB05F004FB0401B2
:1019600059451CDDBC4219DD194B06EB050AA6EBF7
:1019700005091B68AAF1010208EB04015B6E09F17D
:1019800001001B689847124BAAF10102A8EB040161
:101990001B6809F101005B6E1B689847641E0C4BC5
:1019A0003219301B1B68924608EB05015B6E8146BD
:1019B0001B689847064B5246A8EB05011B68484632
:1019C0005B6E1B6898476D1CBD42C5DDBDE8F09F8E
:1019D000E000002010B5002002F03CF96FF07F40DD
:1019E00002F043F9012002F0B7F9002002F0C2F939
:1019F000002002F0CFF9002002F053F904480068FB
:101A000002F05CF9BDE81040002002F077B9000058
:101A1000DC000020F0B50A4600210023002400BFAE
:101A20003DE0012505FA01F3156805EA03049C422F
:101A300034D105684F000326BE40B54305601579D3
:101A40004E00B5400668354305601579012D02D07A
:101A50001579022D16D185684F000326BE40B54387
:101A6000856055794E00B540866835438560456888
:101A700001268E40B5434560456896798E40B6B2E2
:101A800035434560C5684F000326BE40B543C56079
:101A9000D5794E00B540C6683543C560491C10294C
:101AA000BFD3F0BDF0B5002300244D07ED0E02FAC0
:101AB00005F3CE1000F1200555F826504E07F70E1D
:101AC0000F26BE40B543CF1000F1200646F8275040
:101AD000CE1000F1200555F8265045EA0304CE103B
:101AE00000F1200545F82640F0BD024600201369AC
:101AF0000B400BB1012000E000207047418370478C
:101B00000183704770B50C46054600F0FFF8A868E1
:101B10002168C16261680163A1684163490707D513
:101B2000D0E90021C0E90012D0E90221C0E9021287
:101B3000A18981842169002903D001DC4FF00001D3
:101B4000016270BD2DE9F0411E46174688460546E4
:101B500000F0DCF8AC686822414604F58670FEF7B8
:101B600079FB2846B8472846B047286980688047EF
:101B7000A062BDE8F081000010B5044600F0C6F890
:101B8000A0681149144AC0F8AC101049C0F8A81058
:101B90000F49C0F8B0100F49C0F8B8100021C0F8C4
:101BA000BC101368C0F8B4300C4BC0E93231516836
:101BB000C0F8C41030F8261F21F0030120F82A1BBA
:101BC0000749416410BD000065EB000809F10008F9
:101BD0002DEB0008CFE50008540100209FE6000827
:101BE000D5EA000810B5044600F090F8A468104843
:101BF0001021C4F8E4000F48C4F8E8000E48C4F807
:101C0000EC000E48C4F8F0000D48C4F8A0000D48E0
:101C1000C4F8A400D4F8C400C4F8FC00D4F894209C
:101C2000204690471020A0630748606410BD000064
:101C300059C3000801D000084D1C00087D1D000894
:101C400089E50008BDF3000828A10408F8B58468F8
:101C500015460F4694F8260080074CD5D4F800317D
:101C6000204698470646D4F804312A46394620468D
:101C70009847D4F8983005461BB100220121204630
:101C800098472069B04201DD012000E00020A169F1
:101C9000B14201DA012100E0002108436169A94253
:101CA00001DD012100E000210843E169A94201DAD8
:101CB000012100E0002108430AD060680022401E94
:101CC00000902368D4F8A870114620465B1EB847E0
:101CD000D4F8AC302A46314620469847D4F8A010B4
:101CE00020468847D4F8983005466BB10122002180
:101CF0002046984708E0D4F8AC3020469847D4F8FE
:101D0000A0102046884705462846F8BD70B5044611
:101D10008068002812D14FF4BA75284600F096FA70
:101D20002A460021A06003F0C6FAA0680221C184FF
:101D30000121046401620249C0F8081170BD00006D
:101D4000451D000810B590B0044620220A49684697
:101D5000FEF780FA08492022203108A8FEF77AFA17
:101D6000606B5DF82010C4F8001108A951F820003C
:101D7000C4F8040110B010BDC08904082DE9F8436F
:101D800084689846154694F826000F46800740D58B
:101D9000D4F80031204698470646D4F804312A4644
:101DA00039462046984705462069B04201DD0120AA
:101DB00000E00020A169B14201DA012100E0002128
:101DC00008436169A94201DD012100E000210843C7
:101DD000E169A94201DA012100E0002108430AD0AB
:101DE00060680022401E00902368D4F8A870114655
:101DF00020465B1EB847D4F8AC302A463146204610
:101E00009847D4F8A42001B041462046BDE8F043ED
:101E10001047D4F8AC30F2E72DE9F04FDFF828B1E5
:101E200091B04FF0FF35DBF80030B3F92210069186
:101E3000DE69B3F924A0F469A189814206D8E28958
:101E4000824203D3471AD4F8008012E0D4E901811A
:101E5000002970D00A8882426DD84D8885426AD3A5
:101E6000801A82B2486800EB8200B0F90070B0F9C5
:101E70000250781C5FD0307EA27C014600FB02F944
:101E8000207CCDE90710B3F92A60304604F0CCF885
:101E9000C0B20E90DBF8001007FB0980A37C8A6BB0
:101EA0000127CDE90402CDE90273C869089AC17E11
:101EB000807ECDE90001DDE90603514603F05CFCBC
:101EC000681C18D046F0020004F0AEF8DBF8000001
:101ED000A37C05FB0981826BCDE90273CDE9041275
:101EE000C069089AC17E807ECDE90001DDE9060364
:101EF000514603F041FCDBF800005D46C069417EBD
:101F0000007E814214D9022E12D086F0040004F023
:101F10008BF82868C069027EC37E857E02FB03A120
:101F2000437E089A0698534402FB050203F0B0FD75
:101F30000E9804F079F8DBF80000627C418C1144C3
:101F4000418411B0BDE8F08FE00000200448006833
:101F5000C069C06909B1027C0A60407C704700001A
:101F6000E0000020022008807047C06982898A4210
:101F700002D8C2898A4210D2806880B102888A421F
:101F80000DD843888B420AD3406800EB8100A0EB58
:101F90008200B0F90000002801DB0120704700201A
:101FA000704700002DE9F0432F4C034687B02068AE
:101FB0001946B0F92A80C069C06900F082F800288B
:101FC0004ED041680088181A01EBC0054046AE7833
:101FD00004F02AF8814620686A680123816BCDE904
:101FE0000236CDE90421C169CB7E8A7ECDE900238A
:101FF0000B7EB0F924102A78B0F9220003F0BCFB64
:102000002068C069477E067EB7421DD9C07E47431F
:102010004643B8F1020F17D000F07DFF804600F074
:1020200043FF01F022FE21682A78CB69B1F9220032
:10203000B1F92410DB7E02FB0302CB19314403F01B
:1020400027FD404601F011FE484603F0EDFF2068F1
:102050006A78C369B0F922109B7E02FB03114184A8
:1020600007B0BDE8F0830000E000002030B50E4C62
:1020700005460B4620682946C069C06900F021F872
:10208000002810D04168008824682A1A0120E469D9
:1020900000EBC200085CA47E6043002B03D011F863
:1020A00032106143196030BDE0000020012008803B
:1020B000704700B5C06900F004F8002800D0012086
:1020C00000BD06E002888A4202D842888A4202D2D3
:1020D00080680028F6D170472DE9F0410025154EA3
:1020E000154C18E02069C5EB051700EBC7007022FE
:1020F000001D3168FEF7AEF82069002140F8371066
:1021000000EBC70000F10C018161011D0A1DC0E94F
:102110000F126D1C4164A0688542E3DB0BF034FDB7
:102120002169C0EB001001EBC000001D3060BDE86C
:10213000F0810000E00000205802002070B50F4937
:102140000D480860084603F005F80C4C143CA068E4
:10215000C0EB0010C500284600F078F82A460021A0
:10216000206103F0A8F84FF0FF30206002F046F83D
:10217000BDE870400BF008BDDDE000086C020020F7
:1021800010B5040009D000F0A1FF204609F024F8A2
:10219000044601F0CBFF204610BD002010BD38B52D
:1021A000054600F093FF2846FFF7EAFF040009D038
:1021B00000F0DAF82A460021009003F07CF8684627
:1021C00000F002F901F0B2FF204638BD024A10606B
:1021D00021F00300506070470C31012010B504005D
:1021E00016D000F073FF0B48406B10F8341059B153
:1021F000022909D2042101EBC4014158486808F0C2
:10220000A3FF20460CF0ACF9BDE8104001F08EBFF2
:1022100010BD00004C300120002805D0034AD16BCE
:10222000016001B14860D063704700004C3001206C
:1022300010B5044600F04AFF2068FFF7CFFF0020EA
:102240002060BDE8104001F071BF00002DE9F041B1
:1022500004460BF0B5FD2848E41C24F00305016C8E
:102260002D1DA94200D90D46C46B13E054F8042C6F
:10227000AA420ED184B1216809B162684A606168DE
:1022800009B122680A60C26BA24231D12168C163E0
:102290002EE02468002CE9D18046816BC0680F18BD
:1022A00057F8040C3E1A306838B100200CF072FA6E
:1022B00057F8040C3E1A3068D0B97068A84217DB92
:1022C0003044441B3046241D0CF01CFAD8F80C1086
:1022D000491BC8F80C10D8F814102944C8F8141079
:1022E0007068401B02D0314608F02EFF44F8045CB1
:1022F0002046BDE8F08100004C30012010B50024DC
:102300000BF05EFD0C490F2001EBC002526C1AB1BC
:1023100001EBC000406C08E0401EF5D508E04168C4
:10232000A14200D90C46806810B180680028F6D11F
:10233000A4F10C0010BD00004C300120002138B188
:102340000449042202EBC000496B085841680C396B
:10235000084670474C30012002488169491C816160
:10236000704700004C3001200549CA69521CCA61FF
:10237000496B01EBC0010A78521C0A7000F03CB8AE
:102380004C30012010B500F0A1FEFFF7B7FF64222A
:102390000849B0F5800F04D990FBF2F4086A444371
:1023A00003E0096A4143B1FBF2F401F0BFFE2046AD
:1023B00010BD00004C30012002488169491E816136
:1023C000704700004C3001200A4902684B6B52F8FC
:1023D000082C03EBC2021378022B03D3CB690BB199
:1023E0005B1ECB611178491E117000210160084607
:1023F000704700004C300120002806D00349042219
:1024000002EBC000496B0858083070474C3001207F
:1024100070B514460D46064600F058FE204600F002
:1024200087FD0300174804EB840109D050F8210010
:1024300041688068711A2A1A184601F04FFC1CE0A6
:1024400000EB8104A268B24201D0012200E0002228
:10245000E368AB4201D0012300E000231A430CD013
:10246000236943B150F82100816840686A1A311A23
:10247000184601F0ABFBC4E90265BDE8704001F00D
:1024800055BE00008832012010B5C2B2CBB2D21ABC
:1024900000D5524293B25B43C0F30722C1F3072435
:1024A000121B00D55242000C92B2A0EB114002FB6D
:1024B000023200B2002801DA404200B280B200FBD2
:1024C000002010BD10B50021084600F0ABFD43F61A
:1024D000FF725042BDE8104013460146AFF3008042
:1024E0002DE9FC411C4615460E46074600F0EEFD60
:1024F000042003F099FD80461248C068C16C006D4D
:102500000F4406440D440444ADF80070ADF8045087
:10251000ADF80260ADF80640684608F0C3F907E080
:1025200023462A463146384603F0B2FA08F06EF9DF
:102530000028F5D1404603F077FD01F0F7FDBDE836
:10254000FC810000D40000202DE9F8431C00DDE9E7
:10255000089816460F46054602D107F0A9F9044629
:1025600000962E6843464A4621462846B047061E36
:1025700039D007F092F98146698A304606F0F6FEB6
:10258000304608F00DF8484608F00AF84FF0000809
:102590000CE000BFCDF8008055F81CCF00231A4690
:1025A00049462846E04700B307F0FAFF7F1E002F98
:1025B000F0DC1D21484607F078FE601C12D000F0C8
:1025C00085FD07F0A9F930B1FFF716FF8469B44221
:1025D00001D02000F8D1B44202D0304607F056FFB7
:1025E00001F0A4FD3046BDE8F883304607F04AF814
:1025F0000020F8E72DE9F0411C4616460D46074637
:10260000022B02DB0020BDE8F0811C20FFF71EFE3C
:102610000028F8D00DB105610AE0094A52F82410EB
:1026200009B905E011460A68002AFBD10969016170
:1026300084618682002101604160C0E90217E2E7FF
:10264000F800002070B51D46FFF7D4FF040009D044
:1026500000F00EF8E068006820B90348006800EB5D
:1026600085008465204670BDE0000020FFF7D4BDE2
:1026700070B590B38269022A30DA1E4C54F82210E9
:1026800019B944F8220032E019464B68002BFBD1FF
:1026900006E0CB68C5681B682D68AB4203DD09689E
:1026A0000029F6D11AE0C1B1CB68C6681B6836684C
:1026B000B3420CD1838A012B05D008E01946DB68B0
:1026C0001B68AB4203DB0B68002BF7D129B14B68C9
:1026D00033B118604A68426004E0FFE7012070BD32
:1026E00044F822004860884200D1002101600020A7
:1026F00070BD0000F800002010B503E00468FFF78B
:10270000B7FF20460028F9D110BD00000A4A8169B0
:1027100052F82130834202D1036842F821304168E7
:1027200009B102680A60016809B142684A60002183
:102730000160416070470000F800002000207047F1
:10274000022801DB00207047054951F8200004E011
:10275000C16809680029F6D000680028F8D17047E0
:10276000F800002010B500F0B1FC00F0F9FB0549BD
:1027700009688A8C10448884088C4884BDE810401D
:1027800001F0D4BCE00000202DE9FC4706005FD03A
:1027900000F09CFC00F0E4FB3C4C81462068B0F962
:1027A000228000F00DFC216807468A8CD01B8884AB
:1027B00041E000BF47F6FF71304602F06DFB8246F4
:1027C0000146304602F03EFB2168054691F82C0098
:1027D00000F00300012841D002283BD000204A8CA1
:1027E000101A4884ADF800006A1E1044ADF80400C9
:1027F000888CADF80200A9F101010844ADF806008B
:102800006A465146304601F0A5FE2168BDF8020037
:1028100088845146304601F077FB064430780A2818
:102820001ED00D281CD0BDF8000021682844488423
:10283000307818B1761C30780028BBD12068818CA4
:1028400039448184818D21F00301818501F06EFC82
:10285000BDE8FC8705EBD5704010C0E72846BEE711
:10286000206890F82C1001F0030101290BD00229F7
:1028700009D0018C418431780A29D9D1828C02EBAC
:1028800009018184D4E7A0F82280F4E7E000002069
:1028900070B514460D46064600F018FC0548006861
:1028A000458484843046FFF76FFFBDE8704001F037
:1028B0003DBC0000E00000202DE9F04107460A4839
:1028C00015460E460068B0F92C0040F0020001F0F9
:1028D00051FA04462A4631463846FFF7D9FF2046CA
:1028E000BDE8F04101F046BAE000002047F6FF7372
:1028F000AFF300802DE9FC411F4690460D460600CF
:102900004FF000041AD000F0E1FB65B1284607F053
:1029100037FE040007D002462946684602F01BFB3A
:10292000684607F02DFE3B4642462946304601F0F8
:1029300069FE204607F024FE01F0F8FBBDE8FC81AB
:102940002DE9FF4F87B09046894607007DD000F003
:10295000BDFBD9F80040D9F8045021B228B2401A82
:10296000401C029000F0FCFA064618F00C0F1ED036
:1029700038460A9A029901F013FC08F00C01042968
:1029800004D0082902D00C2911D104E0291400FB3D
:102990001610401C09E02114C1EB254200FB162053
:1029A000401C00EBD07001EB600060F31F44484610
:1029B00007F0E6FD5FEA000B09D00246494604A88D
:1029C000CDE9044502F0C7FA04A807F0D9FDA6F145
:1029D000010A38460A9A029902F03CFC03900AEB7D
:1029E000244060F31F45CDE900453846039902F0C5
:1029F00029FA18F003010ED001292CD002290ED19A
:102A0000B9F90420B9F90010521A101A00EBD0706D
:102A100001EB600001E0B9F80000ADF800006A4683
:102A20003846039901F096FD38460A9A029902F059
:102A300007FC074406EB244060F31F443878002865
:102A4000C7D1584607F09CFD00E001E001F06EFBA5
:102A50000BB0BDE8F08FB9F80410081A401CDCE791
:102A60007CB514460D46064600F030FB1148006860
:102A7000C16C006D0D4404443188681E0844ADF8F3
:102A80000400ADF800507188601E0844ADF80600DF
:102A9000ADF80240684607F005FF06E022462946E9
:102AA0003046FEF7EBFE07F0B1FE0028F6D101F04C
:102AB0003DFB7CBDE00000202DE9F04F87B09B4638
:102AC000DDE9109892460C46054600F0FFFA1648DC
:102AD0000168C86C096D47190E1900EB0A0501EB76
:102AE0000B04ADF81070ADF81450ADF81260ADF8ED
:102AF000164004A807F0D6FE88B1DFF830B04FF0DA
:102B0000010ACDE90098CDE902BA23462A463146AA
:102B1000384609F071FF07F079FE0028F1D101F085
:102B200005FB07B0BDE8F08FE00000207D590008EC
:102B30002DE9FC4114460D46064600F0C7FA114F38
:102B40003968C86C096D054404440E44ADF8005062
:102B5000ADF80440ADF80260ADF80660684607F0D5
:102B6000A1FE08E0386822463146406E03682846D8
:102B7000984707F04BFE0028F4D101F0D7FABDE8E2
:102B8000FC810000E00000207CB50C46064600F009
:102B90009DFA0F4D2868C16C006D0E440444ADF8D9
:102BA0000460ADF80060ADF80640ADF8024068463C
:102BB00007F078FE07E028682146406E42683046FC
:102BC000904707F023FE0028F5D101F0AFFA7CBD55
:102BD000E00000202DE9FC411C4616460D46074644
:102BE00000F074FA1A480168087ECA6C096D17442F
:102BF0000D440C44401E391A1644ADF8001031182B
:102C0000ADF80410291A2044ADF80600ADF8021002
:102C1000684607F047FE15E032462946384602F07E
:102C2000ADFE32462146384602F0A8FE621E691CFF
:102C3000384602F003FF621E691C304602F0FEFEB9
:102C400007F0E4FD0028E7D101F070FABDE8FC814F
:102C5000E00000207CB514460D46064600F036FA2A
:102C60000F480068C16C006D0E4405440444ADF883
:102C70000060ADF80460ADF80250ADF8064068465B
:102C800007F010FE06E022462946304602F0D6FE46
:102C900007F0BCFD0028F6D101F048FA7CBD000029
:102CA000E000002070B50C46054600F04BF910B16D
:102CB0000121C0E9001400F009FA284607F028FDB8
:102CC000BDE8704001F032BA10B5002400E00124E4
:102CD00000F004F80028FAD1204610BD094810B5CC
:102CE0000068002410B1804700B1012406F054FDB3
:102CF00000B101240448006810B1804700B10124EC
:102D0000204610BD04010020000100201CB5002158
:102D100000910191694600F0B9FF04E0FFF7D4FF8C
:102D200008B901F00DFA00980028F7D001981CBDF1
:102D30007CB5DDE90645CDE90045FFF705FCBDE8BA
:102D40007C40FFF7E3BF000070B516460C46054611
:102D500000F0BCF90B480068C16C006D0D440444E0
:102D6000002007F09FFD06E0324621462846FEF788
:102D7000D3FD07F04BFD0028F6D1BDE8704001F00F
:102D8000D5B90000E00000202DE9FC411C461546A5
:102D90000E46074600F09AF910480068C16C006DB5
:102DA0000F4406440D440444ADF80070ADF80450DF
:102DB000ADF80260ADF80640684607F073FD07E025
:102DC00023462A463146384602F062FE07F01EFDD1
:102DD0000028F5D101F0AAF9BDE8FC81E00000204F
:102DE000B0F90630B0F90420B0F90210B0F90000D3
:102DF000FFF7CABF08B50B46002805D000928188AE
:102E00008268C08800F001F808BD10B50828029C4F
:102E100030D008DC04FB01F401280AD0022813D0CA
:102E2000042804D11CE0102828D020282CD0002011
:102E300010BD04EBD30003F00701105CC1F10701E2
:102E4000C84000F0010010BD04EB93000621105CA7
:102E500001EA4301C1F10601C84000F0030010BDC2
:102E600004EB5300D907105C02D000F00F0010BD36
:102E7000000910BD04FB0130105C10BD481004FBBC
:102E8000003032F8100010BD881004FB003052F8FA
:102E9000200010BD034951F82000C1688A6A08214A
:102EA00010470000F800002010B500F00FF902F004
:102EB0001FFE02F0FFFE044601F038F9204610BD67
:102EC00010B5044600F002F9054800210068C06909
:102ED000426820469047044601F028F9204610BD7C
:102EE000E000002070B50C46054600F0EFF80648FB
:102EF00021460068C069426828469047044601F0B0
:102F000015F9204670BD0000E0000020002801D027
:102F100006F0A0BC704710B500F0D8F802F0F0FD44
:102F200002F0C8FE044601F001F9204610BD000081
:102F30000021022802D2024951F8201008467047A9
:102F4000500200201FB500210191029103912A2116
:102F50000091694607F09AF9039804B010BD00008B
:102F600010B500F0B3F804480068C069447E01F071
:102F7000DDF8204610BD0000E000002070B51446CA
:102F80000D46064600F0A2F822462946304602F0D9
:102F900023FE10B1002028602060BDE8704001F0E1
:102FA000C5B870B50C46054600F090F82146284695
:102FB00001F08EFFBDE8704001F0B8B801F019B91A
:102FC00010B5002400F082F80B48006890F82C102F
:102FD00001F00C01042904D0082906D00C2907D1DE
:102FE00003E0C069047E641E02E0C069007E4408FC
:102FF00001F09CF8204610BDE0000020017EC07E5C
:1030000048437047024951F8200000690068704742
:10301000F8000020024951F820000069406870471C
:10302000F800002070B50D46044600F04FF8204629
:103030000AF024FE044628460AF028FE044301F064
:1030400075F8204670BD00002DE9F041194801686F
:1030500021F00101016018480125856017490160D0
:1030600000681749884200D0FEE701F0A3F9154E29
:103070002E20307001F0C1F813480AF067FE0DF001
:10308000BFFD074602F0D0FD10B102F0E1FD38B9F6
:1030900002F0E7FD044602F0D0FD214602F0BEFF3B
:1030A0000021084600F038FE06F0ACFE7570384688
:1030B000BDE8F081002000E000300240C2A507F426
:1030C000CDB5E8B5D40000201831012070B5184CFA
:1030D000E06820B101F089F86168884204D001F00D
:1030E000A1F801F082F86060E068401CE06001280F
:1030F0001CD10AF049FD05462068854216D00028FB
:1031000013DBFFF71BFB01462068C0EB00122069B0
:1031100000EBC2025167C5EB0511064A00EBC10086
:10312000011D1160406FFFF7E7FA256070BD0000D8
:1031300058020020E00000201CB5040004D10E4815
:103140000068046E002C16D0FFF7C0FF2046FFF782
:103150000BF9009044696846FFF736F94CB12046F8
:10316000FFF702F9019081688968884701A8FFF795
:103170002BF900F0DBFF1CBDE000002001490A46EE
:1031800000F002B801F0FFFF2DE9F04387B01546CB
:103190000C465FEA000846D0FFF798FF002000F0D9
:1031A00080FD814621480068066E4046FFF7DCF846
:1031B00000900068806900F031FD074640F6FF701E
:1031C000C44204D10098B0F90440B0F90650009808
:1031D000611E0289ADF804401144ADF80810418920
:1031E000681E0844ADF80650ADF80A0006F002F972
:1031F0006846FFF7E9F801A807F054FB06E02A4605
:103200002146404600F0DEFB07F000FB0028F6D127
:10321000384600F003FD304600F0E6F9484600F07D
:1032200040FD00F083FF07B0BDE8F083E000002020
:1032300038B50024009400F001F838BD2DE9FE4FA8
:10324000984691468A46834600270C9EFFF73EFF2C
:10325000184819490068407C51F82040E168096825
:10326000042903D02468002CF8D100E01CB9FFF732
:1032700067FA041E1BD0E0680121C26A204690470D
:10328000050011D02469A0688047401C02D10B4C76
:1032900046F001060096CDE9015443464A465146A0
:1032A000584600F035FA074600F040FF3846BDE8C2
:1032B000FE8F0000E0000020F8000020CCA30408EE
:1032C0002DE9FE4F9846DDE90D650C9F91468A4633
:1032D000834600246DB1FFF7F9FE0097CDE9016543
:1032E00043464A465146584600F012FA044600F05A
:1032F0001DFF2046BDE8FE8F38B504001CD0FFF747
:10330000E5FE0E480068006EA04201D100F078FC96
:103310002046FFF729F80090406908B100F0EFFE61
:1033200000980068FFF7A2F96846FFF74DF82046BD
:10333000FEF754FF00F0FAFE38BD0000E000002068
:103340002DE9FF4F83B09A468B460746FFF7BEFE36
:10335000DFF83891D9F80000447C4D480057012827
:10336000204606DD02F066FC0546204602F076FCAB
:1033700005E002F047FC0546204602F049FC044601
:103380001FB302A901A8FFF70CFEB7F9000000283F
:1033900000DA0020B7F902608046002E00DA00262D
:1033A00001984119B7F90400491E0AF0CEFD0546FF
:1033B00002980119B7F90600491E0AF0C6FDA5EBEF
:1033C0000802841B521C641C03E04FF000084646B0
:1033D0002A46BAF1000F01D1C4F1000A002A51DDDA
:1033E000002C4FDD10980090534631464046FFF7C1
:1033F00025FF5FEA000A10D000F0B0F80746A042AF
:1034000006D0D9F80000806C10B1322107F0DAFD47
:10341000504600F0E9F8002523E059460598884712
:1034200000F084FE012007B0BDE8F08F611BB942B7
:1034300002DA504600F0BCF83DB1721941465046E0
:1034400000F0FAF85046FFF777FE5946059888478E
:103450001048016809B1002088475046FFF78EFEEA
:103460003D44A542E2DB5046FFF746FF002000F056
:10347000BBF8A74206D0D9F80000806C10B1332108
:1034800007F0A0FD00F052FE0020CCE7E000002095
:1034900018010020AC02002038B505004FF00004F0
:1034A00011D0FFF713FE2846FEF75EFF009000687C
:1034B00000698068804702F083FF04466846FEF793
:1034C00083FF00F033FE204638BD38B504000ED02F
:1034D000FFF7FCFD2046FEF747FF00F118040090BF
:1034E0006846FEF771FF00F021FE204638BD00203F
:1034F00038BD000038B504460025FFF7E7FD1CB9CC
:1035000008480068046E44B12046FEF72DFF009085
:10351000B0F904506846FEF757FF00F007FE284652
:1035200038BD0000E000002038B504460025FFF754
:10353000CDFD1CB908480068046E44B12046FEF772
:1035400013FF0090B0F906506846FEF73DFF00F00B
:10355000EDFD284638BD0000E000002038B50446E7
:103560000025FFF7B3FD1CB908480068046E44B19C
:103570002046FEF7F9FE0090B0F90A506846FEF7C3
:1035800023FF00F0D3FD284638BD0000E0000020F6
:1035900070B505460024284607F0BAFF641C18B130
:1035A000BDE8704000F07AB8052CF4DB70BD000077
:1035B00038B50C46050004D10A480068056E002D98
:1035C0000FD0FFF783FD2846FEF7CEFE0090B0F93E
:1035D0000A10A14200DD44816846FEF7F5FE00F0C6
:1035E000A5FD38BDE0000020F8B50546FFF76EFDEB
:1035F000104E3068046ECDB10CB100F001FB05F047
:10360000F9FF2846FEF7B0FE009031680D660068AD
:10361000FFF72EF86846FEF7D7FE02F063FD02F0D2
:10362000DDFC00BF00F082FD2046F8BD00F0E8FAA6
:10363000F8E70000E00000207CB515460E460400C7
:1036400004D115480068046E002C24D0FFF73EFD1D
:103650002046FEF789FE2DB20090C58034B28480EA
:1036600002F0BCFC0098406980B1FEF77DFE009A34
:103670000190B2F908108180B2F90A20C28011B11C
:103680000AB10480458001A8FEF79EFE6846FEF759
:103690009BFE00F04BFD7CBDE000002001490A4686
:1036A00000F002B801F0FFFF7FB515460C4606009A
:1036B0002DD0FFF70BFD3046FEF756FE40F6FF71AA
:1036C0000190CC4203D1B0F90440B0F90650028910
:1036D000611E1144ADF80840ADF80C104189681E18
:1036E0000844ADF80E00ADF80A5001A8FEF76CFED4
:1036F00002A807F0D7F806E02A462146304600F037
:1037000049F907F083F80028F6D100F00FFD7FBDDE
:103710002DE9FF4FDFF8E8B083B01C46DBF800105E
:10372000DDE9106092464FF000084B7C424612994A
:10373000FEF760FF050060D028698068804702F0CE
:103740003FFE81460AFB09F1C91DCF08FEF71AFEAC
:10375000F10705D1C11700EB9170801000EB40001C
:10376000002C09DC1FB11838B0FBF7F000E0002096
:103770006442A04200DC0446F00707D10090DDE976
:1037800003012346524600F03FFC8046002C03DC38
:103790002846FEF76BFF30E004FB07F01830F10716
:1037A00002D0FEF7EDFC01E0FEF7F9FC06001CD0AC
:1037B000FEF7DAFD01900560039981800499C180CC
:1037C000A0F808A04481C0F81480C0E9037901A8DA
:1037D000FEF7FAFD1298AE602861DBF80000407C2D
:1037E000A861304607B0BDE8F08F2846FEF73EFFDF
:1037F000B8F1000001D0FEF7F1FC0020F2E7000074
:10380000E00000202DE9F74F8EB0144689460E984F
:10381000FEF7AAFD0990B0F908B0B0F90A60006897
:10382000006940680C9009A8FEF7CEFD564D574F31
:103830002868407C57F82000C1688A6A08219047B0
:103840000790182801D3202007902868407C57F85B
:1038500020000069069003C80B904D48814201D0BA
:10386000012000E000200A90002000F0EDFC00287C
:103870007DD1286809EB0B01B0F90C20891A491E8B
:10388000002902DDABEB010500E05D46B0F9081050
:10389000494505DDA1EB090189446D1A089101E054
:1038A00000210891002D6BDDB0F90E20A119891AB5
:1038B000491E002902DDA6EB010800E0B046B0F980
:1038C0000A00A04204DD061B3444A8EB060800E011
:1038D0000026B8F1000F53DD089801900DA95F464E
:1038E000DDF830A00E980091FFF7EFFD774300EB75
:1038F000870101982B4601EB800200994846CDE9EB
:1039000000A1214600F020FF0090002838D00A983E
:10391000E8B1DDE906322946009800F045FDB0B96E
:103920000698009FDA46D0F810C0BCF1000F05D011
:1039300004235A4639463846E04708E00B99386870
:10394000884701C7AAF101005FEA000AF6D1009991
:103950000020079ACDE90301059001200090CDE9F0
:10396000010221460346641C2A46484600E007E05F
:1039700001F002FFA8F10100761C5FEA0008ABD15C
:1039800011B0BDE8F08F0000E0000020F80000203A
:10399000FF5C0008F8B515460E460746FEF7E4FC46
:1039A000009000681621C068426A002090470446D3
:1039B0006846FEF709FD002C03D02A4631463846FA
:1039C000A047F8BDF8B516460F46050012D0FEF721
:1039D000CBFC009044696846FEF7F6FC2846FFF7EA
:1039E0005BFD0346082800DD2CB1324639462846E7
:1039F0000BF0FAFCF8BD3246394628460BF094FE2F
:103A0000F8BD10B5002821D009B30AB3B1F90040C0
:103A1000B2F900309C4200DA23460380B1F902403B
:103A2000B2F902309C4200DA23464380B1F90440E7
:103A3000B2F904309C4200DD23468380B1F90610C0
:103A4000B2F90620914200DC1146C18010BD11463A
:103A50000A6802604968416010BD00280BD00388E5
:103A60000B4403808388194481804188114441803C
:103A7000C1881144C180704770B50E4D0446D5E928
:103A80000001884209D10C49884201D13C3000E054
:103A90000C3807C884E8070006E090E80E0084E8C8
:103AA0000E000AF0FBF82860207A002800D00120E0
:103AB00070BD000024010020883101200448D0E9B5
:103AC0000010814201D101207047002070470000A2
:103AD00024010020054A10B5034911600BF080FB5A
:103AE000BDE8104000F066B94D9A000808010020BA
:103AF00070B50025FFF7EAFA094CD4E900208242AC
:103B00000AD0D2E9005610460AF0E0F820603146AB
:103B1000284606F0DBFA012500F008FB284670BDB8
:103B2000400200202DE9FC41154DDDE908742D68A7
:103B3000B5F90860864200DD3046B5F90C60964262
:103B400000DA3246824219DBB5F90A608E4200DDA6
:103B50003146B5F90E509D4200DA2B468B420DDB03
:103B600000E02C46E5682D6825B1042D02D02568BB
:103B7000002DF6D1CDE9007402F01AF9BDE8FC8100
:103B8000E0000020B0F90220B1F906309A4213DCBF
:103B9000B1F90220B0F906309A420DDCB0F90020EC
:103BA000B1F904309A4207DCB1F90010B0F9040011
:103BB000814201DC01207047002070470146024825
:103BC00070220068FCF746BBE000002070B5154687
:103BD0000E4604000AD0FFF779FA2A4631462046FD
:103BE0000BF064F8BDE8704000F0A0BA70BD0000B2
:103BF000024970220968FCF72DBB0000E00000209C
:103C000010B5FFF763FA02F09FF902F06BFA05F0C6
:103C1000F1FBBDE8104000F089BA000070B50B4D13
:103C200004462868467CFFF751FA022C09D2204648
:103C3000FEF786FD28B128684474FFF7E1FF0448C9
:103C4000046000F073FA304670BD0000E000002010
:103C5000A401002010B50446FFF738FA204602F010
:103C600093F9BDE8104000F061BA10B50446FFF7C3
:103C70002DFA204602F0C0F9BDE8104000F056BA17
:103C80000149886070470000D40000201FB5002261
:103C9000019202922A2203910092694606F0F6FAF6
:103CA0001FBD10B50446FFF711FA204602F0BCF91B
:103CB000044600F03BFA204610BD000070B50446F3
:103CC000FFF704FA04480068C56904B1C46100F054
:103CD0002DFA284670BD0000E000002070B51446A3
:103CE0000D460646FFF7F2F922462946304602F015
:103CF000B7F9044600F01AFA204670BD70B50546C3
:103D0000FFF7E4F903480068847E857600F00EFA38
:103D1000204670BDE000002070B50C460546FFF758
:103D2000D5F90948224605800848048008480068FB
:103D3000417C084850F82100C1680B6A2946984721
:103D4000BDE8704000F0F2B92001002022010020FF
:103D5000E0000020F800002070B50546FFF7B6F936
:103D600003480068047E057600F0E0F9204670BD47
:103D7000E000002070B50446FFF7A8F90448006889
:103D8000B0F92C50848500F0D1F9284670BD0000B0
:103D9000E000002070B50446FFF798F90448006879
:103DA000B0F92A50448500F0C1F9284670BD0000E2
:103DB000E000002002480068002800D0004770475B
:103DC0008802002002498A6802B98860FFF7F2BFC2
:103DD0004002002010B504000ED0FFF777F920460E
:103DE0000AF0AAFC20460BF0A5FA2046FEF7F6F9E9
:103DF000BDE8104000F09AB910BD38B50C4605007A
:103E000011D0FFF763F92846FEF7AEFA00908089DB
:103E1000204201D0012400E000246846FEF7D4FAD5
:103E200000F084F900E00124204638BD38B505468D
:103E3000002028600648046844B12046FEF794FA42
:103E40000090006928606846FEF7BEFA204638BD3B
:103E50007402002038B504004FF000000D460860E1
:103E600011D02046FEF780FA0090846844B168467D
:103E7000FEF7AAFA2046FEF777FA0090006928605C
:103E80006846FEF7A1FA204638BD000038B5002488
:103E9000FFF71CF90948406860B1FEF765FA009029
:103EA000FFF78CF8009949690C1A00D50024684680
:103EB000FEF78AFA00F03AF9204638BD7402002075
:103EC00010B50024FFF702F90348406800B101244F
:103ED00000F02CF9204610BD740200202DE9F041BD
:103EE000084E04460568306801682846884707463A
:103EF0003068416828468847284420603846BDE835
:103F0000F0810000E40000202DE9F0410C46064657
:103F10000025064F05E0386841683046884706446A
:103F20000544641EF7D22846BDE8F081E400002075
:103F30002DE9F0411E46069C1746884605463A463E
:103F4000A8687F1C3346D0F804C041462846E047A5
:103F5000641EF4D1BDE8F08170B5B0F90040091BD2
:103F6000B0F904408C422CDD00F11404B0F9025089
:103F70000069521B02FB0040CA1800EBE104521E0C
:103F8000D010B0EBE10501F007034FF0FF0102F0A4
:103F9000070221FA03F0C2F1070201FA02F1CEB2E0
:103FA00021780FD001436D1E04F8011B002D05DDA3
:103FB000FF2229462046FCF76DF92C442078304337
:103FC000207070BD30400143217070BD10B5B0F954
:103FD0000030B0F90240C91A00F114030069121B45
:103FE00002FB003000EBE10001F0070302788021C2
:103FF000D9400A43027010BDB0F90610026951435E
:104000001430FCF74EB900002DE9F843804602F168
:104010000F000011470003FB07F01C4615468946B8
:104020001430FEF7BCF8060018D0FFF74FF8304602
:10403000FEF79AF90090A0F80080A0F80290858021
:10404000C480074981600121818107616846FEF7CC
:10405000BBF900F06BF83046BDE8F8830020FBE7C1
:10406000F0B5040870B5B0F90660B0F904400B680B
:1040700000F1140596421BDD0069A34202FB0050CB
:1040800000EBE30214DA641EE010A0EBE30512F883
:10409000010B03F00704A040C4B206E045B10833A9
:1040A00012F8014B23F007036D1E002CF6D004E03C
:1040B000002070BD6006040E5B1C2006FAD5FF2CA4
:1040C00007D0184602E06406240E401C6606FAD4A7
:1040D00000E0D81DC443640705D006E012F8014B88
:1040E000FF2C09D108306D1EF8D5C01A401C0B609A
:1040F00070BD6206140E401C2206FAD4F5E738B5EE
:104100000546FEF7E3FF2846FEF72EF90090818969
:10411000491E0CB284816846FEF756F914B9284648
:10412000FEF75CF800F002F838BD00000348C168F3
:10413000491EC16001D100F07FB8704758020020CD
:1041400070B5FEF7C3FF14480568FEF705F92C00AB
:1041500004D000BFFFF7EAFF641EFBD10F4CA0683C
:1041600048B1FFF7ADFE48B1FFF790FE40B1A1683E
:1041700031B1884704E0FFF7A3FE08B90BF002F95C
:104180001DB1FEF7A3FF6D1EFAE7FEF715F9BDE8B6
:104190007040FFF7CBBF00006402002088020020BF
:1041A0002DE9F04116460F4605460024FEF78EFF26
:1041B00032463946284601F043F8054408B1641CEC
:1041C000F6E7FFF7B3FF2046BDE8F08110B54FF4E6
:1041D00048410348FDF7FAFF0248FFF751FD10BDC3
:1041E0001C190020F4900408704710B50DF061F818
:1041F00010BD10B50CF0D6FF10BD70471CB50020E7
:104200000190009001A80CF0D7FF0449086001213B
:1042100068460DF035F8024908601CBD2C000020EE
:104220003000002010B54FF0FF31024800680CF05C
:10423000F1FF10BD2C00002010B5024800680CF002
:10424000C1FF10BD2C0000200EB508B102AA00E08D
:104250000022002301A9684600F0A6FD0EBD000063
:10426000074910B50C7818B101200870801E03E0D2
:10427000002008706FF07F4001F068FA204610BD02
:104280001A01002010B5082A0EDC0346012A18D0B6
:10429000022A56D0042A76D010F8042B03F8012BFA
:1042A000491EF9D1012010BD102A08DC4FEA000296
:1042B00030F8043B22F8023B491EF9D1F2E7002016
:1042C00010BD10F8042BD207120E491E34D010F87E
:1042D000044B491E04F0010442EA84122CD010F869
:1042E000044B491E04F0010442EA441224D010F8A1
:1042F000044B491E04F0010442EA04121CD010F8D9
:10430000044B491E04F0010442EAC40214D010F820
:10431000044B491E04F0010442EA84020CD010F858
:10432000044B491E04F0010442EA440204D010F890
:10433000044B04F00104224303F8012B0029C0D1EF
:10434000B0E710F8042B9207120E491E15D010F892
:10435000044B491E04F0030442EA04120DD010F885
:10436000044B491E04F0030442EA840205D010F80D
:10437000044B04F003042243491E03F8012B0029D7
:10438000DFD18FE7FFE710F8042B1207120E491E4A
:1043900005D010F8044B04F00F042243491E03F823
:1043A000012B0029EFD17DE738B50024009400F0FF
:1043B0001DF838BD0B4810B58169002910D10121C5
:1043C0008161FFF703FFFDF7B9FE01F09DFE05498E
:1043D00005481C310860BDE81040084600F0BABE30
:1043E00010BD0000D400002055E000082DE9F04188
:1043F0000D460699044601B901461F68082A09DCE2
:104400000E46012A1AD0022A5BD0042A7DD0082A3F
:1044100013D18DE0102A07DCD3F810C00E46BCF192
:10442000000F04D0022389E00020BDE8F08101CC18
:10443000B84726F8020B6D1EF9D189E001CCB847C8
:10444000C0074FEA10686D1E36D001CCB84748EA65
:10445000801000F0FF086D1E2ED001CCB84748EA4E
:10446000401000F0FF086D1E26D001CCB84748EA86
:10447000001000F0FF086D1E1ED001CCB84748EABE
:10448000C00000F0FF086D1E16D001CCB84748EA06
:10449000800000F0FF086D1E0ED001CCB84748EA3E
:1044A000400000F0FF086D1E06D001CCB84740EA7E
:1044B000080000F0FF086D1E06F8018B002DBDD12D
:1044C00046E001CCB84780074FEA10686D1E16D051
:1044D00001CCB84748EA001000F0FF086D1E0ED06E
:1044E00001CCB84748EA800000F0FF086D1E06D0F6
:1044F00001CCB84740EA080000F0FF086D1E06F83E
:10450000018B002DDDD123E0FFE701CCB847000788
:104510004FEA10686D1E06D001CCB84740EA08008B
:1045200000F0FF086D1E06F8018B002DEDD10FE0A5
:10453000D3F810C0BCF1000F04D001232A46204656
:10454000E04705E001CCB84706F8010B6D1EF9D134
:1045500001206AE77CB5064628480D46006868B128
:10456000002006F09FF906E06A462946304607F02B
:10457000B1F806F04BF90028F6D17CBD1068009028
:104580001F4C506801902268BDF8000032F84C1FA3
:104590000844ADF80000BDF8020091880844ADF869
:1045A0000200BDF8040011880844ADF80400BDF80D
:1045B000060091880844ADF80600684606F072F9D6
:1045C0000EE000BF2068BDF800106A464184BDF8C7
:1045D000021081842946304607F07CF806F016F96F
:1045E0000028EFD1206830F8221F428D891A0180FF
:1045F0004188C28D891A41807CBD00001C010020C9
:10460000E00000202DE9FF4F85B09A4690460D4608
:10461000FEF7A6FC4FF00009DDF814B006464C4644
:1046200025B1286800906868019002E06846FEF7AE
:104630006DFC18F00C0F02D05546002713E0BDF9B1
:1046400002402DE029467F1C059800F025FC01461C
:104650006D1A0598FFF758FC05990844059005A8C0
:1046600000F050FC08B9002DECD108F00C00042833
:1046700004D0082802D00C2812D105E0BDF90600AC
:1046800007FB1604641C0BE0BDF90600BDF902101F
:10469000401A07FB1600401C00EBD07001EB6004D1
:1046A0005546CDF814B043E02946059800F0F4FBD8
:1046B00007460146ED1B059800F0C4FB18F0030106
:1046C0000ED0012939D002290DD1BDF90410BDF950
:1046D0000020891A091A01EBD17102EB610101E096
:1046E000BDF900108946174A401E484412683946F1
:1046F000A2F822909484ADF80C00A019401EADF8E9
:104700000890ADF80E00ADF80A4002AA0598FFF730
:1047100021FF39460598FFF7F7FB059908440590F6
:10472000FEF71EFC044405A800F0ECFB002801D1B4
:10473000002DB9D109B0BDE8F08FBDF90410091AF8
:10474000491CCFE7E00000202DE9FF4F8DB000208D
:10475000DDF86CA0164600901D4604460246CAF8D5
:10476000000008AB03A902A800F01EFB18B100204E
:1047700011B0BDE8F08F0898854200DD0546614F15
:104780000B9561493868407C51F820100491096903
:104790000691FEF77FFB05903868407CFEF73AFCF7
:1047A0005A498146884204D05949894501D001209F
:1047B00000E000200A9001CE1A9988478346000E37
:1047C000079077D0009870BB0D9800EB04084D4817
:1047D0000068B0F90800404503DDA0EB08078046FB
:1047E00000E000270298049900EB840000EB8700AA
:1047F000CDE900010B990D98421809920E9B404695
:104800001946521EFFF78EF90120009005981828CE
:104810000ADA0298DDE9052300EB840000EB87004B
:10482000E91B00F01FFA12E00A9880B1029800EB31
:10483000840000EB87070998A0EB08084946386810
:10484000884701C7A8F101005FEA0008F6D13148A6
:10485000C06980B3DDE9020700EB840007EB840246
:10486000CDE902022B4C361F3046E4692B460299F3
:10487000A047FF213068B1EB106F02D102980068A9
:1048800004E0029A1268B1EB126F01D1039A106032
:10489000029806F10406001D02900398001D039083
:1048A0006D1EE7D10397DAF8000040F00101CAF865
:1048B000001020E021E0FFE70798FF2811D0C0F1A9
:1048C000FF02029850F82410584600F0DFFB0399CD
:1048D00041F82400DAF8000040F00101CAF80010A5
:1048E00005E00298039950F8240041F82400641C64
:1048F0006D1E7FF460AF03983AE7039941F824B046
:10490000E8E70000E0000020F8000020FF5C00085D
:10491000FD5C0008000200202DE9FF4F93B000204D
:10492000DDF8908010906FF070400190DDE922502A
:1049300017460543AD4E02EB47000F9030689A468C
:10494000209C407CFEF75EFB0A903068407CFEF7BE
:10495000A1FA0890182803D0082804DC012007E0F9
:104960002020089003E0102801DC022000E0042051
:104970001190012D04D014984FF0000B079031E1F5
:104980009A480068407CFEF745FB404501D1012074
:104990001090002309AA1946184600F005FA0028CD
:1049A00072D10025A9462678FF2E01D086B193E06A
:1049B0006D1CBD4207D1002509F10109BAF1000FB4
:1049C00062D0AAF1010A14F8030FFF28F0D0A3E087
:1049D0001398149928440D9001EB09000C9010983D
:1049E000002678B10998A1786278E41C01EB0221D5
:1049F0006D1C761C20F8021BBD4225D021780029B1
:104A0000F1D057E01198012804D0022826D00428BC
:104A100050D13AE0DDE9080B01284BD0022849D0FB
:104A2000042847D0082845D1A078617800EB012000
:104A300080B2414688470A998847E41C6D1C761C61
:104A40000BF8010BBD4205D1002509F10109AAF1BE
:104A5000010A2FE020780028E6D02BE0DDF824B012
:104A6000A078617800EB012080B2414688470A991E
:104A70008847E41C6D1C761C2BF8020BBD42E3D06A
:104A800020780028ECD015E04AE0DDF824B0A078CA
:104A9000617800EB012080B2414688470A99884737
:104AA000E41C6D1C761C4BF8040BBD42CCD0207866
:104AB0000028ECD0DDE908020DF1080B00230F9966
:104AC0008BE80F000120009003460190DDE90C10F7
:104AD000324600F051FE1FE0A178607801EB002023
:104AE00080B241468847034614991398C6F1FF02E5
:104AF0004944284400F036FB6D1CBD4207D1002517
:104B000009F10109BAF1000F0AD0AAF1010A14F85B
:104B1000036F701EFE28DFD3BAF1000F7FF443AF9E
:104B200017B0BDE8F08F0799239808440C90401EF9
:104B300003902E4801680398B1F90A2082424DDCA7
:104B4000B1F90E100798814248DB139800260690B1
:104B500042E0A0786178257800EB012080B24146E0
:104B6000884701990090884203D001F045FA0098E7
:104B70000190FF2D2AD2069905B307980F91029054
:104B8000069922980844A0F1010903980D90C5F1F7
:104B9000FF000590009804900F9D06E0DDE90432C7
:104BA0002846029900F0DEFA6D1C4D45F6DD0298AC
:104BB0000D99401C02908842EEDD07E02298039B8D
:104BC0000A18DDE90601521E00F062FF22990698DC
:104BD000E41C0844761C0690BE42BADB0C980BF12C
:104BE000010B0790D3459EDB9AE70000E000002010
:104BF0002DE9F04F85B09B46DDE90F8792460C46C4
:104C00000546DDF83890FEF761FA15480068C16C7A
:104C10004E190D19016DABF1010001EB0A04ADF85D
:104C200010502044ADF80C60ADF81200ADF80E4005
:104C300003A805F037FE0BE0CDF80090CDE9018721
:104C40005B4622462946304607F0E4FF05F0DEFDCC
:104C50000028F1D1FFF76AFA05B0BDE8F08F000037
:104C6000E00000202DE9F05F0C1E16DD5E680146B5
:104C700000EB8405082A12DC611E012A26D0022AD4
:104C800047D0042A6AD0082A07D1071917F8010D5E
:104C9000B04745F8040D641EF8D1BDE8F09F102A16
:104CA000FBDC5F693FB12246BC46BDE8F04F022302
:104CB0005DF804EB604701EB440700BF37F8020DD5
:104CC000B04745F8040D641EF8D1E6E700EBE100BB
:104CD00001F0070710F801A98146802020FA07F8A3
:104CE000B5F104050AEA0800C7F10701C840B0475A
:104CF00045F804093FB14FEA48604FEA10687F1E4B
:104D0000641EEFD1C9E719F801A907274FF0010880
:104D1000F6E700EBA10001F0030710F801A98146B6
:104D20007900C02020FA01F84FF0060BB5F1040518
:104D30000AEA0800ABEB4701C840B04745F8040950
:104D40003FB14FEA88604FEA10687F1E641EEFD1C2
:104D5000A3E7032719F801A9B846F7E700EB6100BC
:104D6000012710F801A9A7438146B900F02020FAD5
:104D700001F84FF0040B2D1F0AEA0800ABEB870186
:104D8000C840B04745F804093FB14FEA08704FEA00
:104D900010687F1E641EEFD17FE719F801A9012773
:104DA0004FF00F08F6E700002DE9F047224C0646C9
:104DB0001F46A06990468946002540B90120A061A0
:104DC00004F120011D480860084600F0C3F960693D
:104DD00030B91B480068606110B900F016FF6061CF
:104DE00007B138604EB1A06830B960698000FDF746
:104DF0002DFAA06000B901253060B9F1000F0AD08A
:104E0000E06830B960698000FDF720FAE06000B921
:104E10000125C9F80000B8F1000F0AD0206930B9A7
:104E200060698000FDF712FA206100B90125C8F819
:104E300000002846BDE8F08700020020B5E0000829
:104E40001001002073B5124A01A90098126890471A
:104E500000240090C8B10F4900250968C969496953
:104E600059B10A684AB1019990477CBD6846FFF77D
:104E700035F80546FEF724F804440198401E0190D9
:104E8000F4D5284600F032F8044420467CBD0000EA
:104E900054030020E000002073B50D460098002464
:104EA00090B10A490968C969496959B14A684AB162
:104EB000294690477CBD6846FFF710F820B10A28C4
:104EC00002D0641CAC42F6DB20467CBDE000002032
:104ED000044AB2F9002002600348B0F900000860FB
:104EE00070470000200100202201002038B5002476
:104EF00069460094FDF7F6FF0099814200DD0C1A27
:104F0000204638BD016811F8012B12B10A2A02D0DF
:104F100002E001207047016000207047B0F90030C6
:104F2000B1F90020934200DA0280B0F90230B1F901
:104F30000220934200DA4280B0F90430B1F9042033
:104F4000934200DD8280B0F90620B1F906108A4252
:104F500000DDC180704770B5B1F90040B2F9003092
:104F60009C4200DD23460380B1F90250B2F90240B1
:104F7000A54200DD2C464480B1F90460B2F904502A
:104F8000AE4200DA35468580B1F90610B2F9062046
:104F9000914200DB1146C1809D4201DBA14201DA52
:104FA000002070BD012070BD014602480068407CB1
:104FB00000F002B8E00000202DE9F8430126894600
:104FC000044602285DDA304F7A6802B190472E4DD0
:104FD0005FEA090005F1100532D0012803D0B9F1CC
:104FE000020F4ED118E055F8240088B92046FDF78D
:104FF000A7FB009018B3C0680D21426A684690472D
:1050000002003ED049460098904755F824000026FB
:10501000401C45F8240034E02046FDF791FB009049
:1050200068B1C0680D21426A68469047040028D0E4
:10503000386800B1804749460098A047002620E024
:1050400055F82400A846012812D12046FDF778FB28
:10505000009068B1C0680D21426A6846904705001B
:1050600006D0386800B1804749460098A847002616
:1050700058F8241009B1012200E00022891A48F8EA
:1050800024103046BDE8F8832802002070B5FF23C5
:10509000B3EB116F29D0C3B200F47F4500F47F0455
:1050A000060E5343554354435643C2F1FF00CAB260
:1050B00002FB003201F47F4303FB005301F47F0540
:1050C00005FB0044090E01FB0065C2F307204FF405
:1050D0007F4101EA1322090201EA14214FF07F43C4
:1050E000104303EA05430843184370BD2DE9F04F10
:1050F0000646DDE90CB915460C46002080465845A9
:1051000019D20B9F4FF0FF0A01CE08CCAAEB106218
:1051100002FB09F2B2FBFAF1CAB21946FFF7B6FF79
:1051200020F07F4001C57F1EEED1099804EB80047A
:1051300008F10100E2E7BDE8F08F0B88134403801B
:105140008B889B1A83804B8813444380C988891AB3
:10515000C180704702494A69426048617047000057
:10516000D40000202DE9F041184C06460D46206879
:1051700098461746B0F90A10A94224DCB0F90E107F
:10518000A94220DBB0F90810B1421CDCB0F90C00D8
:10519000B04218DB2946304600F0E6FC01463A46AC
:1051A0004046FFF773FF00F0D9FA034620682A460D
:1051B000417C074850F82100C1688C693146A446FB
:1051C000BDE8F0416047BDE8F0810000E00000204C
:1051D000F80000202DE9F8430768064688460025B8
:1051E000384600F0CBF840B3404600F0D7F8441CF6
:1051F0003846FDF7A3F884420CD1F4B13846FDF7E8
:10520000B3F8224641460090FBF724F86846FDF7C4
:10521000DBF811E02046FCF7B3FF04000DD0FDF7EA
:10522000A3F841460090FBF74EF86846FDF7CCF82E
:105230003046FCF7FDFF346001252846BDE8F883C1
:1052400010B5044600F009F801462046BDE81040BC
:10525000FEF75ABE00230AF09DB877B581B0154617
:105260000E466B4601980AF095F8044601460198EF
:10527000FEF74AFE01990844019001A8FEF72EFEB0
:105280000A2802D0012D02D012E0641C10E0202870
:105290000ED1FDF715FE054607E02844009001A851
:1052A000641CFEF71BFE202802D100988642F4DA27
:1052B00004B0204670BD10B502E000F8011B521E7C
:1052C0000AB18307F9D1930818D001EB014402F029
:1052D000030204EB042406E010C01B1F10C040F8BA
:1052E000084B40F8044C042BF6DA01E010C05B1EBA
:1052F000002BFBD102E000F8011B521E002AFAD15C
:1053000010BD10B5830702D520F8021B521E5308AA
:1053100011D001EB0144042B09DB10C01B1F10C08E
:10532000042B40F8084B40F8044CF6DA01E010C0BA
:105330005B1E002BFBD1D20700D0018010BD0246BE
:1053400000204FF080414318934201D8D21A5818D8
:1053500040088908F7D1704700B907A021B906A114
:1053600002E03AB1401C491C02780B789A42F8D00E
:1053700001207047002070470000000038B50D463E
:10538000012448B1FCF7F0FF29460090FFF7E4FF45
:1053900004466846FDF718F8204638BD4FF0FF3147
:1053A00028B100BF10F8012B491C002AFAD1084689
:1053B000704701464869806880B2704708B5014669
:1053C000D1F8CC00006800900098C0F3414008BDBF
:1053D000024602F29B30405C70470146D1F8100350
:1053E000704710B50446204603F003F8002010BDB6
:1053F00070B504460D46002104F29B304155113032
:1054000000EB451041612946204602F0A1FE70BD27
:105410002DE9FF5F074640688246FCF7A5FF039031
:10542000D0E90045D0F88490D0F84080466B03A8BE
:10543000FCF7CAFF3946504603F004FF002855D058
:1054400038680B286FD004DC032808D005284AD11F
:1054500032E00F284CD0B0F5107F44D137E0B9F1DD
:10546000000F40D04F4ED7F80C80706808B1B0687C
:1054700028B900F0D1FB706000F0E2FBB060D8F812
:105480000010002902DD20B2401A15D4D8F804001B
:10549000002803DDC0EB2442002A0DD4002904DAE1
:1054A0002AB2511A7268914206DC002809DAB16802
:1054B000C0EB2540884204DD0121504600F016F97A
:1054C00011E0221421B24846FEF7B6F80BE0F86866
:1054D00028B1007A08B1012102E0022100E0032195
:1054E000504604F0EAFD384604F094F8BDE8FF9F0A
:1054F000B9F1000003D000BFFEF7D0F8F6E7F007DF
:1055000049D0700710D5284A284901208DE80700A6
:1055100021142AB220B2C1EB2543121A521C5B1C83
:10552000FDF7CEFE0AE03AE021142AB220B2C1EB28
:105530002543121A521C5B1CFDF77AFE04002AD088
:105540005046FCF711FF0390C0F8844003A8FCF715
:105550003BFFDFF85C90D9F80000D0E90257204605
:10556000FEF742F88346700706D54FF07F40FEF7FE
:1055700071FBFCF7A7FF02E02046FDF7DDFD50467A
:10558000414688475846FEF72FF8D9F80000C0E991
:1055900002572046B0E7504641468847A6E700211B
:1055A0008BE700008C010020CCA304089CAD04080C
:1055B000E0000020F0B51446D0E9056285B0B0F9EE
:1055C0000850478A0296CDE90352CDE90017B0F999
:1055D0000C10B0F91050B0F90E20B0F90A001944BF
:1055E00020442B4600F002F805B0F0BD2DE9F04F45
:1055F00087B08146DDE911061C461546884640F015
:105600000107DDF840B0DDF850A0FDF75FFD300781
:1056100015D505A9584604F033F9BDF91800BDF9B0
:1056200014104FF00008451ABDF91A00BDF9161004
:10563000C146441A641C47F4F0676D1C03E005B9C9
:10564000012504B901240AF15C00124ACDE90220C7
:10565000CDE900B723462A464146484603F022FFDB
:10566000040011D0FCF780FE04900022139903F08F
:10567000B9FE0499B0074E6301D5074800E007481A
:10568000086404A8FCF7A0FEFEF750FD07B0204612
:10569000BDE8F08F11540008BDE3000875E1000873
:1056A00038B50C4605001BD0002C19D0FDF70EFDB7
:1056B0002846FCF759FE0B490090C0E90E410A4903
:1056C00041646846FCF780FE0021284600F00EF891
:1056D000284600F023F8284604F03EFCFEF726FD9D
:1056E00038BD000099CB0008A5D9000838B50C4694
:1056F000FCF73AFE0090D0F88400FDF7FDFD00981D
:105700000025C0F884502CB9806D18B1FEF762FBFB
:10571000009885656846FCF757FE38BD7FB505469D
:10572000FCF722FE009090F83460446C6846FCF769
:105730004BFEF00608D502AA01A92846A047DDE9DC
:105740000112284604F0F8FE7FBD000002490A68F5
:105750000860104670470000980200200449054A7E
:105760000968497C52F82110096909680847000056
:10577000E0000020F80000202DE9F04F05468DB034
:105780007B48DDF860901A9C00681E4617464FF073
:10579000000A78B11B9B199ACDF808900593CDE9C2
:1057A0000324DDE91623CDE90023046833463A4695
:1057B000284680E0DDE9160201EB060805EB070C40
:1057C0001043A8F10108ACF1010C012806D0C9F181
:1057D00008000590002002910990C6E06548026823
:1057E000B2F90A30581A002806DD361A002E63DD99
:1057F0001946199B00FB0344B2F90E00A8EB000008
:10580000002802DD361A002E56DDB2F90C00ACEB92
:105810000000002800DD3F1AB2F908300020AB423A
:1058200035DD581B3F1A4B46B9F1080F26D006DC70
:10583000012B0BD0022B11D0042B28D116E0102BFA
:105840001ED0182B1FD0202B21D11CE020F00703E5
:1058500004EBE0041D4400F0070018E020F003030F
:1058600004EBA0041D4400F0030010E020F001034D
:1058700004EB60041D4400F0010008E0044404E06F
:1058800004EB400401E004EB800405440020002FF9
:1058900012DD1B9BDDF864C0CDE90403CDE900698E
:1058A000CDE902C4527C34483B4650F82200C2681D
:1058B00054680A462946A0470DB0BDE8F08F1799F5
:1058C000029808440C902B49401E00900A68B2F9D7
:1058D0000A30834241DCB2F90E10029881423CDB6F
:1058E0004FF0000BD84603950A9434E0BBF1000F4B
:1058F00005D10A984FF0080B10F801AB0A900599F2
:10590000ABEB090B3AFA01F00AFA09F101F0FF0AD0
:1059100004D118490968097C890716D41549096812
:10592000C96B0A680B921B9A0AB152F820000860F2
:1059300016990398009B4218521E029900F0A8F88D
:105940000C490B980968C96B08600399169808F10F
:10595000010808440390B845C8DB0998401C099029
:105960000C980290199804440998B042A7DBA3E769
:105970001C010020E0000020F8000020F0B40C46DC
:1059800012490968B1F90A30A3421CDCB1F90E30A2
:10599000A34218DBB1F90830834200DD1846B1F9A3
:1059A0000C30934200DA1A4682420CDB4B7C0849E9
:1059B00051F8235013462246E9688E68014628466E
:1059C000B446F0BC6047F0BC70470000E000002027
:1059D000F80000200A46174930B40968B1F90A30C6
:1059E000934225DCB1F90E30934221DBB1F9083046
:1059F00083421DDCB1F90C30834219DB0B7C0E4C69
:105A0000DB0709D0497C54F82130D968CC690146BC
:105A1000A44630BC18466047CB6B497C1B6854F8E1
:105A20002140E1688D6901462046AC4630BC6047A4
:105A300030BC7047E0000020F8000020124B30B46A
:105A40001B68B3F9084084421CDCB3F90C40844263
:105A500018DBB3F90A408C4200DD2146B3F90E4051
:105A6000944200DA22468A420CDB5C7C074B53F8F6
:105A70002440E368DD6813460A4601462046AC46EA
:105A800030BC604730BC7047E0000020F8000020C8
:105A900038B5134C2468B4F90850854200DD284617
:105AA000B4F90C50954200DA2A46824217DBB4F969
:105AB0000A508D4200DD2946B4F90E509D4200DAAD
:105AC0002B468B420BDB0093647C064B53F824403F
:105AD000E3681D6913460A4601462046A84738BDBB
